:100000000C942A000C94DC000C9403010C942A013B
:100010000C9447000C9447000C9447000C94470044
:100020000C9447000C9447000C9447000C94470034
:100030000C9447000C9447000C9447000C94470024
:100040000C9447000C9447000C9447000C94470014
:100050000C94470011241FBECFE5D4E0DEBFCDBF16
:1000600010E0A0E6B0E0ECE7FBE002C005900D92E6
:10007000AE37B107D9F710E0AEE7B0E001C01D928E
:10008000A438B107E1F70E948A050C94BC050C94D2
:100090000000813081F0813018F0823019F516C0EF
:1000A000662319F06130F1F403C08BB7806415C08A
:1000B0008BB78F7B12C0662319F0613099F403C0AF
:1000C0008BB780680AC08BB78F7707C0662319F09B
:1000D000613041F404C08BB780628BBF08958BB749
:1000E0008F7D8BBF0895813009F1813020F08230FF
:1000F00009F044C037C0613051F0613028F06230FF
:1001000061F06330D9F50CC085B78E7F02C085B72A
:10011000816085BF85B78D7F23C085B78E7F02C084
:1001200085B7816085BF85B782601AC0613051F0A4
:10013000613028F0623061F0633001F50CC085B7A2
:100140008B7F02C085B7846085BF85B7877F08C075
:1001500085B78B7F02C085B7846085BF85B788600F
:1001600085BF0895623019F0633041F404C084B74C
:100170008F7B84BF089584B7806484BF0895611520
:10018000710511F480E00895813051F0813018F04C
:10019000823051F40BC070937F0060937E0004C0E6
:1001A000709381006093800081E0089570938300D4
:1001B0006093820081E008951F920F920FB60F9214
:1001C00011242F933F934F935F936F937F938F935C
:1001D0009F93AF93BF93EF93FF93E0917E00F091D5
:1001E0007F000995FF91EF91BF91AF919F918F9102
:1001F0007F916F915F914F913F912F910F900FBE23
:100200000F901F9018951F920F920FB60F92112406
:100210002F933F934F935F936F937F938F939F930E
:10022000AF93BF93EF93FF93E0918000F091810033
:100230000995FF91EF91BF91AF919F918F917F9120
:100240006F915F914F913F912F910F900FBE0F9043
:100250001F9018951F920F920FB60F9211242F9393
:100260003F934F935F936F937F938F939F93AF933E
:10027000BF93EF93FF93E0918200F0918300099583
:10028000FF91EF91BF91AF919F918F917F916F916E
:100290005F914F913F912F910F900FBE0F901F9044
:1002A00018958FB780688FBF08958FB78F778FBFEE
:1002B0000895843008F080C0683008F07DC0423076
:1002C00008F07AC0813029F1813038F0823009F4A9
:1002D0003CC0833009F072C053C0442371F04130F8
:1002E00009F06CC02AB381E090E002C0880F991F2A
:1002F0006A95E2F7282B2ABB5DC02AB381E090E023
:1003000002C0880F991F6A95E2F7809582238ABB05
:1003100051C0442371F0413009F050C027B381E04F
:1003200090E002C0880F991F6A95E2F7282B27BB3F
:1003300041C027B381E090E002C0880F991F6A9501
:10034000E2F78095822387BB35C0442369F04130B2
:10035000A9F524B381E090E002C0880F991F6A9547
:10036000E2F7282B24BB26C024B381E090E002C032
:10037000880F991F6A95E2F78095822384BB1AC083
:10038000442369F04130D1F421B381E090E002C010
:10039000880F991F6A95E2F7282B21BB0BC021B368
:1003A00081E090E002C0880F991F6A95E2F780957E
:1003B000822381BB81E0089580E0089581E0089563
:1003C000683008F07AC0813029F1813038F082300D
:1003D00009F43CC0833009F070C053C0442371F06D
:1003E000413009F06AC02BB381E090E002C0880F71
:1003F000991F6A95E2F7282B2BBB5DC02BB381E0D8
:1004000090E002C0880F991F6A95E2F780958223D9
:100410008BBB51C0442371F0413009F04EC028B36A
:1004200081E090E002C0880F991F6A95E2F7282BBF
:1004300028BB41C028B381E090E002C0880F991F1B
:100440006A95E2F78095822388BB35C0442369F022
:10045000413099F525B381E090E002C0880F991FE3
:100460006A95E2F7282B25BB26C025B381E090E0F2
:1004700002C0880F991F6A95E2F78095822385BB99
:100480001AC0442369F04130C1F422B381E090E006
:1004900002C0880F991F6A95E2F7282B22BB0BC078
:1004A00022B381E090E002C0880F991F6A95E2F7BD
:1004B0008095822382BB81E0089580E00895FA014F
:1004C00090E002C0959587956A95E2F781708083E8
:1004D00081E00895623070F5813081F0813028F03C
:1004E0008230A9F0833031F51BC0662329F06130DA
:1004F00019F58FEF8ABB1CC01ABA1AC0662329F0FF
:100500006130D1F48FEF87BB13C017BA11C06623D7
:1005100029F0613089F48FEF84BB0AC014BA08C097
:10052000662329F0613041F48FEF81BB01C011BA1D
:1005300081E0089580E0089581E00895813051F0D0
:10054000813030F0823041F0833049F080E008950E
:100550006BBB03C068BB01C065BB81E0089562BB93
:1005600081E0089580E061E00E946A0280E060E03E
:100570000E949E0282E061E00E946A0282E060E0E6
:100580000E949E0283E061E00E946A0283E060E0D4
:100590000E949E0281E061E00E946A0281E060E0C8
:1005A0000E949E020895FB016115710599F081304A
:1005B00049F0813028F0823039F0833059F406C098
:1005C00089B305C086B303C083B301C080B3808301
:1005D00081E0089580E0089540E050E00BC020E005
:1005E00030E000002F5F3F4F63E020323607C9F74D
:1005F0004F5F5F4F4817590790F30895411141E04D
:100600000E94E0010895442311F441E001C040E05C
:100610000E94E00108958A3010F081E00895E82FEB
:10062000F0E0EF59FF4F80E060810E949E0280E081
:1006300008950E94B20208951F93182F82E067E088
:1006400040E00E94E00182E066E040E00E94E001BC
:1006500081E0612F0E949E0282E065E041E00E94FD
:10066000E00180ED97E00197F1F782E065E040E07E
:100670000E94E0011F91089581E00E941C030895EB
:10068000662329F0613011F080E001C0805C805861
:100690000E941C0308950F931F9380E991E028ECBA
:1006A00030E0F9013197F1F70197D9F788E30E941B
:1006B0001C0300ED17E0C8010197F1F78CE00E94E0
:1006C0001C03C8010197F1F78EE00E941C03C801CA
:1006D0000197F1F781E00E941C0380EA9FE00197F7
:1006E000F1F71F910F9108951F93182F82E067E093
:1006F00041E00E94E00182E066E040E00E94E0010B
:1007000081E0612F0E949E0282E065E041E00E944C
:10071000E00180ED97E00197F1F782E065E040E0CD
:100720000E94E0011F910895DF92EF92FF920F93D4
:100730001F93CF93DF93F82E8B01E42ED22E880FD8
:10074000880F880F805C0E941C03C0E0D0E0F80195
:10075000EC0FFD1F80810E9474032196C830D105E3
:10076000B1F78E2D6D2D0E9440038F2D0E947403D2
:10077000DF91CF911F910F91FF90EF90DF9008953F
:100780001F93CF93DF93EC0110E003C00E9474032A
:100790001F5FFE01E10FF11D80818823B9F7DF9112
:1007A000CF911F9108954F925F927F928F929F9267
:1007B000AF92BF92CF92DF92EF92FF920F931F936F
:1007C000DF93CF930F92CDB7DEB777247A94EE24E0
:1007D000FF244E010894811C911C90E4492E9CE951
:1007E000592EF701E159FF4FA08080E06A2D40E0CB
:1007F0000E94E0010BE610E082E7C82E80E0D82ED0
:10080000CE0CDF1C89B3F801B0806B2DA4010E94CF
:100810005F0289818823B1F489B36B2DA4010E9402
:100820005F02C2010197F1F78981882359F4F6012B
:10083000708005C089B36B2DA4010E945F0289817D
:100840008823C1F30F5F1F4F83E090E0C80ED91ECD
:1008500090E00F361907B1F680E06A2D41E00E9462
:10086000E0010894E11CF11CE3E0EE16F10409F04C
:10087000B8CF872D0F90CF91DF911F910F91FF90EF
:10088000EF90DF90CF90BF90AF909F908F907F9030
:100890005F904F90089580E065E041E00E9459012B
:1008A00080E066E041E00E94590180E067E041E0BD
:1008B0000E94590180E065E041E00E94E00180E093
:1008C00066E041E00E94E00180E067E041E00E94D4
:1008D000E00180E061E040E00E94590180E062E0D8
:1008E00040E00E94590180E063E040E00E9459012D
:1008F00080E064E040E00E94590180E061E041E076
:100900000E94E00180E062E041E00E94E00180E0BE
:1009100063E041E00E94E00180E064E041E00E9489
:10092000E00108958BB391E089278BBB0895EF9286
:10093000FF920F931F93CF93DF937C01C0E0D0E031
:1009400000E21EE45DC080E060E040E00E94E00163
:1009500080E061E040E00E94E00180E062E040E091
:100960000E94E00180E063E041E00E94E001C801F4
:100970000197F1F780E060E040E00E94E00180E054
:1009800061E040E00E94E00180E062E041E00E941E
:10099000E00180E063E040E00E94E001C8010197CF
:1009A000F1F780E060E040E00E94E00180E061E07B
:1009B00041E00E94E00180E062E040E00E94E0014E
:1009C00080E063E040E00E94E001C8010197F1F798
:1009D00080E060E041E00E94E00180E061E040E012
:1009E0000E94E00180E062E040E00E94E00180E0DF
:1009F00063E040E00E94E001C8010197F1F7219611
:100A0000CE15DF0508F49FCFDF91CF911F910F9195
:100A1000FF90EF900895EF92FF920F931F93CF9363
:100A2000DF937C01C0E0D0E000E21EE45DC080E026
:100A300060E041E00E94E00180E061E040E00E946F
:100A4000E00180E062E040E00E94E00180E063E0DD
:100A500040E00E94E001C8010197F1F780E060E00A
:100A600040E00E94E00180E061E041E00E94E0019E
:100A700080E062E040E00E94E00180E063E040E06E
:100A80000E94E001C8010197F1F780E060E040E0DA
:100A90000E94E00180E061E040E00E94E00180E02F
:100AA00062E041E00E94E00180E063E040E00E94FB
:100AB000E001C8010197F1F780E060E040E00E94AA
:100AC000E00180E061E040E00E94E00180E062E05F
:100AD00040E00E94E00180E063E041E00E94E0012C
:100AE000C8010197F1F72196CE15DF0508F49FCFD5
:100AF000DF91CF911F910F91FF90EF90089580911A
:100B00006000882321F481E08093600008951092B2
:100B1000600008950E94B2020E944B030E944B04A1
:100B200083E062E040E00E94590183E062E041E03E
:100B30000E94E00180E061E00E94730080E060E0DC
:100B40000E94490080E06FE775E00E94BF000E94AC
:100B500051019FEF03C00E94D303982F9F3FD9F309
:100B600080916000882319F4892F805D02C0892F4D
:0C0B7000805C0E947403EFCFF894FFCF6C
:100B7C0001C0F9A4B0999282F88090010203040597
:0E0B8C0006070102030405060708090B000C0A
:00000001FF
