:100000000C942A000C9465010C948C010C94B3019F
:100010000C9447000C9447000C9447000C94470044
:100020000C9447000C9447000C94AB000C94840093
:100030000C9447000C9447000C9447000C94470024
:100040000C94C7030C9447000C9447000C94470091
:100050000C94470011241FBECFE5D8E0DEBFCDBF12
:1000600010E0A0E6B0E0E2EEFFE002C005900D92E5
:10007000AE38B107D9F710E0AEE8B0E001C01D928C
:10008000A43AB107E1F70E947F070C94EF070C94A4
:10009000000083B7877F83BF83B78F7B83BF89B718
:1000A000816089BF83B7887F83BF83B7836083BF45
:1000B000089582BF08958CBF0895009711F480E0E1
:1000C0000895909391008093900081E008950097A7
:1000D00011F480E0089590938F0080938E0081E06A
:1000E0000895882319F0813071F407C083B78F7E9B
:1000F00083BF83B7806283BF089583B7806183BF66
:1001000083B7806283BF08951F920F920FB60F923C
:1001100011242F933F934F935F936F937F938F930C
:100120009F93AF93BF93EF93FF93E0919000F09173
:1001300091000995FF91EF91BF91AF919F918F91A0
:100140007F916F915F914F913F912F910F900FBED3
:100150000F901F9018951F920F920FB60F921124B7
:100160002F933F934F935F936F937F938F939F93BF
:10017000AF93BF93EF93FF93E0918E00F0918F00C8
:100180000995FF91EF91BF91AF919F918F917F91D1
:100190006F915F914F913F912F910F900FBE0F90F4
:1001A0001F901895813081F0813018F0823019F558
:1001B00016C0662319F06130F1F403C08BB7806478
:1001C00015C08BB78F7B12C0662319F0613099F48C
:1001D00003C08BB780680AC08BB78F7707C06623D0
:1001E00019F0613041F404C08BB780628BBF089571
:1001F0008BB78F7D8BBF0895813009F1813020F05E
:10020000823009F044C037C0613051F0613028F0CD
:10021000623061F06330D9F50CC085B78E7F02C0C3
:1002200085B7816085BF85B78D7F23C085B78E7FF9
:1002300002C085B7816085BF85B782601AC0613012
:1002400051F0613028F0623061F0633001F50CC08C
:1002500085B78B7F02C085B7846085BF85B7877FF0
:1002600008C085B78B7F02C085B7846085BF85B71E
:10027000886085BF0895623019F0633041F404C08E
:1002800084B78F7B84BF089584B7806484BF08954A
:100290006115710511F480E00895813051F08130CD
:1002A00018F0823051F40BC0709393006093920069
:1002B00004C0709395006093940081E0089570935A
:1002C00097006093960081E008951F920F920FB6F9
:1002D0000F9211242F933F934F935F936F937F93CC
:1002E0008F939F93AF93BF93EF93FF93E09192000F
:1002F000F09193000995FF91EF91BF91AF919F917C
:100300008F917F916F915F914F913F912F910F90BE
:100310000FBE0F901F9018951F920F920FB60F925D
:1003200011242F933F934F935F936F937F938F93FA
:100330009F93AF93BF93EF93FF93E0919400F0915D
:1003400095000995FF91EF91BF91AF919F918F918A
:100350007F916F915F914F913F912F910F900FBEC1
:100360000F901F9018951F920F920FB60F921124A5
:100370002F933F934F935F936F937F938F939F93AD
:10038000AF93BF93EF93FF93E0919600F0919700A6
:100390000995FF91EF91BF91AF919F918F917F91BF
:1003A0006F915F914F913F912F910F900FBE0F90E2
:1003B0001F9018958FB780688FBF08958FB78F777C
:1003C0008FBF0895843008F080C0683008F07DC089
:1003D000423008F07AC0813029F1813038F0823023
:1003E00009F43CC0833009F072C053C0442371F05B
:1003F000413009F06CC02AB381E090E002C0880F60
:10040000991F6A95E2F7282B2ABB5DC02AB381E0C9
:1004100090E002C0880F991F6A95E2F780958223C9
:100420008ABB51C0442371F0413009F050C027B35A
:1004300081E090E002C0880F991F6A95E2F7282BAF
:1004400027BB41C027B381E090E002C0880F991F0D
:100450006A95E2F78095822387BB35C0442369F013
:100460004130A9F524B381E090E002C0880F991FC4
:100470006A95E2F7282B24BB26C024B381E090E0E4
:1004800002C0880F991F6A95E2F78095822384BB8A
:100490001AC0442369F04130D1F421B381E090E0E7
:1004A00002C0880F991F6A95E2F7282B21BB0BC069
:1004B00021B381E090E002C0880F991F6A95E2F7AE
:1004C0008095822381BB81E0089580E0089581E0DA
:1004D0000895683008F07AC0813029F1813038F011
:1004E000823009F43CC0833009F070C053C044230B
:1004F00071F0413009F06AC02BB381E090E002C096
:10050000880F991F6A95E2F7282B2BBB5DC02BB390
:1005100081E090E002C0880F991F6A95E2F780950C
:1005200082238BBB51C0442371F0413009F04EC08F
:1005300028B381E090E002C0880F991F6A95E2F726
:10054000282B28BB41C028B381E090E002C0880F6F
:10055000991F6A95E2F78095822388BB35C04423B2
:1005600069F0413099F525B381E090E002C0880F31
:10057000991F6A95E2F7282B25BB26C025B381E099
:1005800090E002C0880F991F6A95E2F78095822358
:1005900085BB1AC0442369F04130C1F422B381E025
:1005A00090E002C0880F991F6A95E2F7282B22BBC2
:1005B0000BC022B381E090E002C0880F991F6A95BA
:1005C000E2F78095822382BB81E0089580E0089560
:1005D000FA0190E002C0959587956A95E2F78170DF
:1005E000808381E00895623070F5813081F0813040
:1005F00028F08230A9F0833031F51BC0662329F042
:10060000613019F58FEF8ABB1CC01ABA1AC0662375
:1006100029F06130D1F48FEF87BB13C017BA11C036
:10062000662329F0613089F48FEF84BB0AC014BAC5
:1006300008C0662329F0613041F48FEF81BB01C00F
:1006400011BA81E0089580E0089581E00895813035
:1006500051F0813030F0823041F0833049F080E059
:1006600008956BBB03C068BB01C065BB81E0089502
:1006700062BB81E0089580E061E00E94F30280E0C7
:1006800060E00E94270382E061E00E94F30282E0C2
:1006900060E00E94270383E061E00E94F30283E0B0
:1006A00060E00E94270381E061E00E94F30281E0A4
:1006B00060E00E9427030895FB016115710599F020
:1006C000813049F0813028F0823039F0833059F49C
:1006D00006C089B305C086B303C083B301C080B32D
:1006E000808381E0089580E0089533983E9A3F9892
:1006F0003098319A329A379A0895982FFB016115F4
:10070000710511F481E0089587B1807E87B987B1C2
:10071000892B87B9369A80E090E001C00196349B1E
:1007200004C08055934C31F40CC023EC8035920703
:10073000A9F707C0349A84B195B19183808380E092
:10074000089582E00895982F80916E00813011F015
:1007500083E0089561157105C1F041155105A9F0B7
:1007600082E080936E00709399006093980050939C
:100770009B0040939A0087B1807E87B987B1892B0F
:1007800087B9369A339A80E0089581E008951F92E0
:100790000F920FB60F9211242F933F934F935F93B5
:1007A0006F937F938F939F93AF93BF93EF93FF9339
:1007B00084B195B1E0919800F09199009183808384
:1007C000E0919A00F0919B000995339881E0809325
:1007D0006E00FF91EF91BF91AF919F918F917F91AB
:1007E0006F915F914F913F912F910F900FBE0F909E
:1007F0001F90189540E050E00BC020E030E0000072
:100800002F5F3F4F63E020323607C9F74F5F5F4FDE
:100810004817590790F30895411141E00E94690279
:100820000895442311F441E001C040E00E946902B0
:1008300008958A3010F081E00895E82FF0E0EF5835
:10084000FF4F80E060810E94270380E008950E94AE
:100850003B0308951F93182F82E060E040E00E9460
:10086000690282E061E040E00E94690280E0612F5D
:100870000E94270382E062E041E00E94690280ED6D
:1008800097E00197F1F782E062E040E00E946902A0
:100890001F91089581E00E942A040895662329F09B
:1008A000613011F080E001C0805C80580E942A0411
:1008B00008950F931F9380E991E028EC30E0F9014F
:1008C0003197F1F70197D9F788E30E942A0400EDE8
:1008D00017E0C8010197F1F78CE00E942A04C801D3
:1008E0000197F1F786E00E942A04C8010197F1F709
:1008F00081E00E942A0480EA9FE00197F1F71F91AE
:100900000F9108951F93182F82E060E041E00E944C
:10091000690282E061E040E00E94690280E0612FAC
:100920000E94270382E062E041E00E94690280EDBC
:1009300097E00197F1F782E062E040E00E946902EF
:100940001F910895DF92EF92FF920F931F93CF9321
:10095000DF93F82E8B01E42ED22E880F880F880F9C
:10096000805C0E942A04C0E0D0E0F801EC0FFD1F7B
:1009700080810E9482042196C830D105B1F78E2D66
:100980006D2D0E944E048F2D0E948204DF91CF9125
:100990001F910F91FF90EF90DF9008951F93CF93D9
:1009A000DF93EC0110E003C00E9482041F5FFE0190
:1009B000E10FF11D80818823B9F7DF91CF911F915D
:1009C00008954F925F927F928F929F92AF92BF92C3
:1009D000CF92DF92EF92FF920F931F93DF93CF930B
:1009E0000F92CDB7DEB777247A94EE24FF244E0120
:1009F0000894811C911C90E4492E9CE9592EF70122
:100A0000E158FF4FA08081E06A2D40E00E9469021A
:100A10000BE710E082E8C82E80E0D82ECE0CDF1C59
:100A200086B3F801B0806B2DA4010E94E802898191
:100A30008823B1F486B36B2DA4010E94E802C201A1
:100A40000197F1F78981882359F4F601708005C078
:100A500086B36B2DA4010E94E80289818823C1F32B
:100A60000F5F1F4F83E090E0C80ED91E90E00F3754
:100A70001907B1F681E06A2D41E00E9469020894ED
:100A8000E11CF11CE3E0EE16F10409F0B8CF872D6C
:100A90000F90CF91DF911F910F91FF90EF90DF901A
:100AA000CF90BF90AF909F908F907F905F904F902E
:100AB000089581E065E041E00E94E20181E066E0A6
:100AC00041E00E94E20181E067E041E00E94E20132
:100AD00081E065E041E00E94690281E066E041E07A
:100AE0000E94690281E067E041E00E94690281E0C2
:100AF00064E040E00E94E20181E063E040E00E94A7
:100B0000E20181E061E040E00E94E20181E060E01A
:100B100040E00E94E20181E064E041E00E9469025D
:100B200081E063E041E00E94690281E061E041E030
:100B30000E94690281E060E041E00E94690208953C
:100B40008BB391E089278BBB0895EF92FF920F93AF
:100B50001F93CF93DF937C01C0E0D0E000E21EE45E
:100B60005DC080E060E040E00E94690280E061E0FA
:100B700040E00E94690280E062E040E00E94690279
:100B800080E063E041E00E946902C8010197F1F74B
:100B900080E060E040E00E94690280E061E040E0C7
:100BA0000E94690280E062E041E00E94690280E008
:100BB00063E040E00E946902C8010197F1F780E01C
:100BC00060E040E00E94690280E061E041E00E9454
:100BD000690280E062E040E00E94690280E063E038
:100BE00040E00E946902C8010197F1F780E060E0EF
:100BF00041E00E94690280E061E040E00E946902F9
:100C000080E062E040E00E94690280E063E040E052
:100C10000E946902C8010197F1F72196CE15DF0500
:100C200008F49FCFDF91CF911F910F91FF90EF902C
:100C30000895EF92FF920F931F93CF93DF937C0160
:100C4000C0E0D0E000E21EE45DC080E060E041E092
:100C50000E94690280E061E040E00E94690280E059
:100C600062E040E00E94690280E063E040E00E94B0
:100C70006902C8010197F1F780E060E040E00E945E
:100C8000690280E061E041E00E94690280E062E088
:100C900040E00E94690280E063E040E00E94690257
:100CA000C8010197F1F780E060E040E00E9469022E
:100CB00080E061E040E00E94690280E062E041E0A3
:100CC0000E94690280E063E040E00E946902C8017E
:100CD0000197F1F780E060E040E00E94690280E067
:100CE00061E040E00E94690280E062E040E00E9432
:100CF000690280E063E041E00E946902C801019757
:100D0000F1F72196CE15DF0508F49FCFDF91CF9143
:100D10001F910F91FF90EF9008958091A200909104
:100D2000A30020E08F39920719F48EE990E006C005
:100D300020E0803A920739F48FE990E09093A30085
:100D40008093A2000895815A904031F480EA90E0A7
:100D50009093A3008093A20008958091A2009091A7
:100D6000A30020E08E39920719F48FE990E006C0C5
:100D700020E08F39920739F480EA90E09093A30045
:100D80008093A2000895805A904031F481EA90E067
:100D90009093A3008093A20008950F931F93CF9385
:100DA000DF93AC01D901E8018881882319F08150D3
:100DB00088831DC099E098838C91882319F0815015
:100DC0008C9315C085E08C93FB018081882331F4DE
:100DD000FB019083FA018081882319F08150808380
:100DE00006C0FA011082FB0110821C921882DF916A
:100DF000CF911F910F910895DF92EF92FF920F9381
:100E00001F93182FF62EE42ED22E0E944A0480E063
:100E100060E00E944E04812F805D0E9482048F2D2D
:100E2000805D0E9482048E2D0E9482048D2D805D43
:100E30000E948204802F805D0E9482041F910F9186
:100E4000FF90EF90DF9008950F931F9380919C0087
:100E500090919D00019690939D0080939C008091BD
:100E60009C0090919D00885E9140E1F48EE990E0B5
:100E70006FE970E04FE650E020EA30E001EA10E070
:100E80000E94CD0680919E0060919F0040916F006E
:100E90002091A0000091A1000E94FC0610929D00EC
:100EA00010929C0080919E008823F9F480919F000D
:100EB0008823D9F48091A0008823B9F48091A100FF
:100EC000882399F40E944A0480E690E00E94CE04B0
:100ED0008CE49DE128EC30E0F9013197F1F70197BE
:100EE000D9F780E690E00E94CE041F910F910895FB
:100EF0000E94490084E297E00E945D0008950F93EC
:100F00001F930E943B030E9459050E94590483E0ED
:100F100062E040E00E94E20183E063E040E00E9482
:100F2000E20181E062E040E00E94E20180E060E0F6
:100F30000E94D20080E061E00E94FC0080E06DE849
:100F400076E00E94480181E060E00E94D20081E0EA
:100F500061E00E94FC0081E06DEA76E00E944801B9
:100F600082E060E00E94D20082E063E00E94FC0028
:100F700082E068E777E00E9448010E94DA018EE98A
:100F800090E09093A3008093A20080919E006091D6
:100F90009F0040916F002091A0000091A1000E944D
:100FA000FC061FEF04C00E94E10480937000809152
:100FB00070008F3FC1F3E091A200F091A300808305
:100FC00080919E0060919F0040916F002091A00051
:100FD0000091A1000E94FC0610937000E8CFF894E5
:020FE000FFCF41
:100FE200202046696E697368656420212100013AF8
:100FF200FFC0F9A4B0999282F88090040301000521
:0E10020006070102030405060708090B000C8F
:00000001FF
