:100000000C942A000C943F000C943F000C943F0089
:100010000C943F000C943F000C943F000C943F0064
:100020000C943F000C943F000C943F000C943F0054
:100030000C943F000C943F000C943F000C943F0044
:100040000C943F000C943F000C943F000C943F0034
:100050000C943F0011241FBECFE5D8E0DEBFCDBF1A
:1000600010E0A0E6B0E0E2EAFDE202C005900D92E9
:10007000AC3BB107D9F70E9430140C94CF160C9406
:100080000000EF92FF920F931F937B018C0120E001
:1000900030E040E05FE40E94410388238CF0C80117
:1000A000B70120E030E040E05FE40E94B9010E9427
:1000B000A1039B01AC01205030404040504806C095
:1000C000C801B7010E94A1039B01AC01B901CA019B
:1000D0001F910F91FF90EF900895A0E0B0E0E3E74B
:1000E000F0E00C949816DC012B01FA019C919230FF
:1000F00008F439C1EB018881823008F433C19430AF
:1001000069F4843009F02FC111969C91119789816F
:10011000981709F428C1A6E9B0E025C1843009F494
:1001200021C18230A9F4923009F01DC19A01AD01BC
:1001300088E0EA010990AE01E90109929E0181502F
:10014000C1F7E201898111969C918923818308C1BD
:10015000923009F407C112962D903C901397EB0151
:100160008A819B811496AD90BD90CD90DC901797BD
:10017000EC80FD800E811F819101281B390BB90194
:1001800037FF04C066277727621B730B6032710547
:100190000CF061C0121613066CF537014801062EEB
:1001A00004C096948794779467940A94D2F721E0D8
:1001B00030E040E050E004C0220F331F441F551FC1
:1001C0006A95D2F721503040404050402E213F21C7
:1001D00040235123211531054105510521F021E02E
:1001E00030E040E050E079018A01E628F72808294C
:1001F00019293CC0232BD1F1260E371E35014601AB
:10020000062E04C096948794779467940A94D2F744
:1002100021E030E040E050E004C0220F331F441FD3
:10022000551F6A95D2F721503040404050402A2156
:100230003B214C215D21211531054105510521F05E
:1002400021E030E040E050E059016A01A628B728DB
:10025000C828D9280BC0821593052CF01C01AA24AC
:10026000BB24650103C0EE24FF24870111969C91F5
:10027000D20111968C91981709F445C0992339F051
:10028000A80197012A193B094C095D0906C0A6017E
:1002900095012E193F09400B510B57FD08C01182E3
:1002A0003382228224833583468357831DC081E0B5
:1002B00081833382228288279927DC01821B930B5A
:1002C000A40BB50B84839583A683B7830DC0220F3F
:1002D000331F441F551F24833583468357838281F0
:1002E000938101979383828324813581468157814D
:1002F000DA01C9010197A109B1098F5F9F4FAF4F83
:10030000BF4328F30BC0918333822282EA0CFB1C8B
:100310000C1D1D1DE482F5820683178383E0808314
:10032000248135814681578157FF1AC0C901AA2708
:1003300097FDA095BA2F81709070A070B0705695FF
:10034000479537952795822B932BA42BB52B848328
:100350009583A683B7838281938101969383828359
:10036000DF0101C0D201CD01CDB7DEB7E2E10C94CF
:10037000B416A0E2B0E0EFEBF1E00C94A4166983B0
:100380007A838B839C832D833E834F835887E9E058
:10039000EE2EF12CEC0EFD1ECE010196B7010E944F
:1003A000CA048E010F5E1F4FCE010596B8010E9450
:1003B000CA048A8991E089278A8BC701B801AE01F6
:1003C000475E5F4F0E946D000E94F503A096E6E035
:1003D0000C94C016A0E2B0E0E0EFF1E00C94A4169B
:1003E00069837A838B839C832D833E834F835887D5
:1003F000F9E0EF2EF12CEC0EFD1ECE010196B701B7
:100400000E94CA048E010F5E1F4FCE010596B801EF
:100410000E94CA04C701B801AE01475E5F4F0E9447
:100420006D000E94F503A096E6E00C94C016A0E2D1
:10043000B0E0EDE1F2E00C94981669837A838B8347
:100440009C832D833E834F835887CE010196BE0146
:10045000675F7F4F0E94CA04CE010596BE016F5EA2
:100460007F4F0E94CA049985923088F08989823032
:10047000C8F0943019F4823051F404C0843029F467
:10048000923081F486E990E0C6C0923049F420E0D1
:100490009A858A89981321E02A87CE010996BBC0E4
:1004A000823049F420E09A858A89981321E02A8BCA
:1004B000CE014196B0C02D843E844F8458886D880B
:1004C0007E888F88988CEE24FF248701AA24BB2481
:1004D000650140E050E060E070E0E0E0F0E0C10184
:1004E00081709070892BE9F0E60CF71C081D191D2E
:1004F0009A01AB012A0D3B1D4C1D5D1D80E090E073
:10050000A0E0B0E0E614F7040805190520F481E046
:1005100090E0A0E0B0E0BA01A901480F591F6A1F9E
:100520007B1FAA0CBB1CCC1CDD1C97FE08C081E005
:1005300090E0A0E0B0E0A82AB92ACA2ADB2A3196C6
:10054000E032F10549F0660C771C881C991C569422
:10055000479437942794C3CFFA85EA892B893C893D
:100560008B859C85280F391F2E5F3F4F17C0CA010E
:1005700081709070892B61F016950795F794E79438
:1005800080E090E0A0E0B0E8E82AF92A0A2B1B2BD3
:1005900076956795579547952F5F3F4F77FDE7CF46
:1005A0000CC0440F551F661F771F17FD4160EE0CEE
:1005B000FF1C001F111F21503040403090E05907B0
:1005C00090E0690790E4790760F32B8F3C8FDB01A3
:1005D000CA018F779070A070B07080349105A1052A
:1005E000B10561F447FD0AC0E114F10401051105EC
:1005F00029F0405C5F4F6F4F7F4F40781A8EFE1797
:1006000011F081E08A8F4D8F5E8F6F8F78A383E02A
:10061000898FCE0149960E94F503A096E2E10C94E1
:10062000B416A8E1B0E0E7E1F3E00C94A416698306
:100630007A838B839C832D833E834F83588789E005
:10064000E82EF12CEC0EFD1ECE010196B7010E94A2
:10065000CA048E010F5E1F4FCE010596B8010E949D
:10066000CA048985823040F08989823028F0C70128
:10067000B8010E94420501C08FEF6896E6E00C9435
:10068000C016A8E1B0E0E7E4F3E00C94A416698397
:100690007A838B839C832D833E834F83588789E0A5
:1006A000E82EF12CEC0EFD1ECE010196B7010E9442
:1006B000CA048E010F5E1F4FCE010596B8010E943D
:1006C000CA048985823040F08989823028F0C701C8
:1006D000B8010E94420501C08FEF6896E6E00C94D5
:1006E000C016A8E1B0E0E7E7F3E00C94A416698334
:1006F0007A838B839C832D833E834F83588789E045
:10070000E82EF12CEC0EFD1ECE010196B7010E94E1
:10071000CA048E010F5E1F4FCE010596B8010E94DC
:10072000CA048985823040F08989823028F0C70167
:10073000B8010E94420501C081E06896E6E00C9491
:10074000C016ACE0B0E0E7EAF3E00C94A8166983C9
:100750007A838B839C83CE010196BE016B5F7F4FB2
:100760000E94CA048D81823061F1823050F1843060
:1007700021F48E81882351F12EC02F81388537FDD9
:1007800020C06E812F3131051CF06623F9F023C0A3
:100790008EE190E0821B930B29853A854B855C8521
:1007A00004C056954795379527958A95D2F76623C5
:1007B000B1F050954095309521953F4F4F4F5F4F89
:1007C0000EC020E030E040E050E009C02FEF3FEFE6
:1007D0004FEF5FE704C020E030E040E050E8B901AF
:1007E000CA012C96E2E00C94C416DF92EF92FF92BD
:1007F0000F931F93FC01E480F58006811781D1805F
:100800008081823048F480E090E0A0E1B0E0E82A06
:10081000F92A0A2B1B2BA5C0843009F49FC0823013
:1008200021F4EE24FF24870105C0E114F104010541
:10083000110519F4E0E0F0E096C0628173819FEF4A
:10084000623879070CF05BC022E83FEF261B370BBC
:100850002A3131052CF020E030E040E050E02AC0A1
:10086000B801A701022E04C0769567955795479564
:100870000A94D2F781E090E0A0E0B0E004C0880FD5
:10088000991FAA1FBB1F2A95D2F70197A109B10989
:100890008E219F21A023B1230097A105B10521F04E
:1008A00081E090E0A0E0B0E09A01AB01282B392B69
:1008B0004A2B5B2BDA01C9018F779070A070B07062
:1008C00080349105A105B10539F427FF09C0205CEA
:1008D0003F4F4F4F5F4F04C0215C3F4F4F4F5F4F23
:1008E000E0E0F0E02030A0E03A07A0E04A07A0E412
:1008F0005A0710F0E1E0F0E079018A0127C0603882
:10090000710564F5FB01E158FF4FD801C7018F77EE
:100910009070A070B07080349105A105B10539F4D4
:10092000E7FE0DC080E490E0A0E0B0E004C08FE3FB
:1009300090E0A0E0B0E0E80EF91E0A1F1B1F17FFB1
:1009400005C016950795F794E794319687E01695BC
:100950000795F794E7948A95D1F705C0EE24FF2414
:100960008701EFEFF0E06E2F679566276795902F70
:100970009F77D794DD24D7948E2F8695492F462BC9
:10098000582F5D29B701CA011F910F91FF90EF9079
:10099000DF900895FC01DB01408151812281622FAB
:1009A0006F7770E0221F2227221F9381892F880FE3
:1009B000822B282F30E0991F9927991F11969C931D
:1009C000119721153105A9F54115510561057105ED
:1009D00011F482E037C082E89FEF13969C938E93C8
:1009E00012979A01AB0167E0220F331F441F551F76
:1009F0006A95D1F783E08C930DC0220F331F441FFB
:100A0000551F12968D919C911397019713969C9365
:100A10008E931297203080E0380780E0480780E40A
:100A2000580758F314962D933D934D935C93179765
:100A300008952F3F310579F4411551056105710580
:100A400019F484E08C93089564FF03C081E08C93D3
:100A500012C01C9210C02F57304013963C932E9317
:100A6000129783E08C9387E0440F551F661F771F12
:100A70008A95D1F7706414964D935D936D937C9332
:100A8000179708951F93DC01FB019C91923008F4A5
:100A900047C08081823008F443C0943051F41196ED
:100AA0001C91843099F58181682F70E0611B710978
:100AB0003FC0843021F0923031F48230B9F181812D
:100AC000882389F12DC011961C9111978230F1F085
:100AD00081811817D9F412962D913C911397828138
:100AE00093818217930794F028173907BCF0149666
:100AF0008D919D910D90BC91A02D248135814681D1
:100B00005781281739074A075B0718F4112341F06A
:100B10000AC082179307A407B50740F4112319F000
:100B200061E070E005C06FEF7FEF02C060E070E051
:100B3000CB011F910895DF93CF93CDB7DEB780E04F
:100B400061E00E94390880E060E00E94D80882E0FD
:100B500061E00E94390882E060E00E94D80883E0EA
:100B600061E00E94390883E060E00E94D80881E0DB
:100B700061E00E94390881E060E00E94D808CF91CE
:100B8000DF910895DF93CF93CDB7DEB72E970FB6E1
:100B9000F894DEBF0FBECDBF8A836B834C8381E0A8
:100BA00089838A81843008F00CC18B81883008F0F9
:100BB00008C18C81813021F08C81882309F001C12A
:100BC0008A81282F30E03E872D878D859E85813054
:100BD000910509F44FC02D853E85223031052CF456
:100BE0008D859E85009771F0EDC02D853E85223064
:100BF000310509F477C08D859E858330910509F410
:100C0000A9C0E0C08C81282F30E03C872B878B85E2
:100C10009C850097D1F02B853C852130310509F06A
:100C2000D1C0AAE3B0E0EAE3F0E08081482F8B81F5
:100C3000282F30E081E090E0022E02C0880F991F3B
:100C40000A94E2F7842B8C93BDC0AAE3B0E0EAE3F8
:100C5000F0E08081482F8B81282F30E081E090E008
:100C6000022E02C0880F991F0A94E2F78095842310
:100C70008C93A8C08C81282F30E03A8729878985FA
:100C80009A850097D1F029853A852130310509F000
:100C900099C0A7E3B0E0E7E3F0E08081482F8B81C3
:100CA000282F30E081E090E0022E02C0880F991FCB
:100CB0000A94E2F7842B8C9385C0A7E3B0E0E7E3C6
:100CC000F0E08081482F8B81282F30E081E090E098
:100CD000022E02C0880F991F0A94E2F780958423A0
:100CE0008C9370C08C81282F30E038872F838F81C0
:100CF00098850097D1F02F8138852130310509F092
:100D000061C0A4E3B0E0E4E3F0E08081482F8B8190
:100D1000282F30E081E090E0022E02C0880F991F5A
:100D20000A94E2F7842B8C934DC0A4E3B0E0E4E393
:100D3000F0E08081482F8B81282F30E081E090E027
:100D4000022E02C0880F991F0A94E2F7809584232F
:100D50008C9338C08C81282F30E03E832D838D8189
:100D60009E810097C9F02D813E812130310551F5DA
:100D7000A1E3B0E0E1E3F0E08081482F8B81282FF0
:100D800030E081E090E0022E02C0880F991F0A94A3
:100D9000E2F7842B8C9316C0A1E3B0E0E1E3F0E02E
:100DA0008081482F8B81282F30E081E090E0022E57
:100DB00002C0880F991F0A94E2F7809584238C93D0
:100DC00001C0198289812E960FB6F894DEBF0FBE3E
:100DD000CDBFCF91DF910895DF93CF93CDB7DEB72D
:100DE0002E970FB6F894DEBF0FBECDBF8A836B83FC
:100DF0004C8381E089838B81883008F008C18A8127
:100E0000282F30E03E872D878D859E858130910586
:100E100009F450C02D853E85223031052CF48D8596
:100E20009E85009771F0F1C02D853E8522303105F9
:100E300009F479C08D859E858330910509F4ACC095
:100E4000E4C08C81282F30E03C872B878B859C85E4
:100E50000097C9F02B853C852130310549F5ABE37E
:100E6000B0E0EBE3F0E08081482F8B81282F30E069
:100E700081E090E0022E02C0880F991F0A94E2F7E9
:100E8000842B8C93C5C0ABE3B0E0EBE3F0E0808152
:100E9000482F8B81282F30E081E090E0022E02C0A5
:100EA000880F991F0A94E2F7809584238C93B0C031
:100EB0001982AEC08C81282F30E03A872987898536
:100EC0009A850097C9F029853A852130310549F581
:100ED000A8E3B0E0E8E3F0E08081482F8B81282F81
:100EE00030E081E090E0022E02C0880F991F0A9442
:100EF000E2F7842B8C938CC0A8E3B0E0E8E3F0E049
:100F00008081482F8B81282F30E081E090E0022EF5
:100F100002C0880F991F0A94E2F7809584238C936E
:100F200077C0198275C08C81282F30E038872F83D5
:100F30008F8198850097C9F02F8138852130310540
:100F400049F5A5E3B0E0E5E3F0E08081482F8B812F
:100F5000282F30E081E090E0022E02C0880F991F18
:100F60000A94E2F7842B8C9353C0A5E3B0E0E5E349
:100F7000F0E08081482F8B81282F30E081E090E0E5
:100F8000022E02C0880F991F0A94E2F780958423ED
:100F90008C933EC019823CC08C81282F30E03E8368
:100FA0002D838D819E810097C9F02D813E81213056
:100FB000310549F5A2E3B0E0E2E3F0E08081482F9B
:100FC0008B81282F30E081E090E0022E02C0880F54
:100FD000991F0A94E2F7842B8C931AC0A2E3B0E025
:100FE000E2E3F0E08081482F8B81282F30E081E020
:100FF00090E0022E02C0880F991F0A94E2F78095B4
:1010000084238C9305C0198203C0198201C0198200
:1010100089812E960FB6F894DEBF0FBECDBFCF915B
:10102000DF910895DF93CF9300D000D00F92CDB71A
:10103000DEB78A836B835D834C8381E089838A81F9
:10104000282F30E08B81882F90E0A90102C05595B0
:1010500047958A95E2F7CA018170EC81FD81808312
:1010600089810F900F900F900F900F90CF91DF918B
:101070000895DF93CF93CDB7DEB72D970FB6F894D1
:10108000DEBF0FBECDBF8A836B8381E089838B81F6
:10109000813021F08B81882309F07FC08A81282F3D
:1010A00030E03D872C878C859D858130910571F1DD
:1010B0002C853D85223031052CF48C859D8500974B
:1010C00069F069C02C853D8522303105B1F18C85F0
:1010D0009D858330910509F447C05DC08B81282F21
:1010E00030E03B872A878A859B85009759F02A85BF
:1010F0003B852130310509F051C0EAE3F0E08FEF84
:1011000080834CC0EAE3F0E0108248C08B81282F36
:1011100030E03987288788859985009751F02885A0
:10112000398521303105D1F5E7E3F0E08FEF808399
:1011300035C0E7E3F0E0108231C08B81282F30E02A
:101140003F832E838E819F81009751F02E813F81B6
:101150002130310519F5E4E3F0E08FEF80831EC004
:10116000E4E3F0E010821AC08B81282F30E03D8349
:101170002C838C819D81009751F02C813D81213001
:10118000310561F4E1E3F0E08FEF808307C0E1E334
:10119000F0E0108203C0198201C0198289812D9666
:1011A0000FB6F894DEBF0FBECDBFCF91DF9108958B
:1011B000DF93CF9300D000D00F92CDB7DEB78A83F4
:1011C0006B8381E089838A81282F30E03D832C83E3
:1011D0008C819D8181309105D1F02C813D8122301F
:1011E00031052CF48C819D81009761F01FC02C810A
:1011F0003D812230310581F08C819D8183309105C4
:1012000081F014C0EBE3F0E08B81808310C0E8E351
:10121000F0E08B8180830BC0E5E3F0E08B8180837D
:1012200006C0E2E3F0E08B81808301C019828981EE
:101230000F900F900F900F900F90CF91DF91089526
:10124000DF93CF9300D000D000D0CDB7DEB78A8334
:101250007C836B8381E089838B819C810097E9F19A
:101260008A81282F30E03E832D838D819E818130BD
:101270009105E1F02D813E81223031052CF48D81E4
:101280009E81009761F027C02D813E81223031057B
:10129000A1F08D819E8183309105B1F01CC0E9E3FE
:1012A000F0E08081EB81FC81808318C0E6E3F0E010
:1012B0008081EB81FC81808311C0E3E3F0E08081D9
:1012C000EB81FC8180830AC0E0E3F0E08081EB8168
:1012D000FC81808303C0198201C01982898126960E
:1012E0000FB6F894DEBF0FBECDBFCF91DF9108954A
:1012F000DF93CF9300D000D000D0CDB7DEB79E8370
:101300008D831C821B8214C01A82198206C00000C1
:1013100089819A8101969A83898389819A8123E0C0
:1013200080329207A0F38B819C8101969C838B83F2
:101330002B813C818D819E812817390728F32696C1
:101340000FB6F894DEBF0FBECDBFCF91DF910895E9
:10135000DF93CF93CDB7DEB70E949B05CF91DF918E
:101360000895DF93CF9300D0CDB7DEB7898389810D
:101370008A3018F081E08A830CC08981882F90E040
:10138000FC01EF54FF4F908180E0692F0E94D80844
:101390001A828A810F900F90CF91DF910895DF9389
:1013A000CF9300D00F92CDB7DEB789836A834B838A
:1013B0008B81882331F489816A8141E00E94EC06A7
:1013C00005C089816A8140E00E94EC060F900F9071
:1013D0000F90CF91DF910895DF93CF9300D00F92BC
:1013E000CDB7DEB789836A834B838B81882331F441
:1013F00089816A8140E00E94EC0605C089816A818A
:1014000041E00E94EC060F900F900F90CF91DF917A
:101410000895DF93CF93CDB7DEB72F970FB6F8942B
:10142000DEBF0FBECDBF8F8782E067E041E00E9444
:10143000EC0682E066E040E00E94EC0681E06F8509
:101440000E94D80882E065E041E00E94EC0680E05E
:1014500090E0A0E8BFE38B879C87AD87BE876B8554
:101460007C858D859E8520E030E04AEF54E40E9423
:101470001702DC01CB018F839887A987BA876F8118
:10148000788589859A8520E030E040E85FE30E9416
:10149000710388232CF481E090E09E838D833FC00C
:1014A0006F81788589859A8520E03FEF4FE757E483
:1014B0000E94110318164CF56B857C858D859E85E1
:1014C00020E030E040E251E40E941702DC01CB0151
:1014D000BC01CD010E944100DC01CB019E838D83C4
:1014E0000FC088EC90E09C838B838B819C8101975B
:1014F000F1F79C838B838D819E8101979E838D83E1
:101500008D819E81009769F714C06F8178858985E8
:101510009A850E944100DC01CB019E838D838D81E1
:101520009E819A83898389819A810197F1F79A83B1
:10153000898382E065E040E00E94EC062F960FB6BA
:10154000F894DEBF0FBECDBFCF91DF910895DF933A
:10155000CF93CDB7DEB72F970FB6F894DEBF0FBE8F
:10156000CDBF8F8782E067E040E00E94EC0682E01A
:1015700066E040E00E94EC0681E06F850E94D8089A
:1015800082E065E041E00E94EC0680E090E0A0E8A7
:10159000BFE38B879C87AD87BE876B857C858D85F8
:1015A0009E8520E030E04AEF54E40E941702DC01FF
:1015B000CB018F839887A987BA876F8178858985C2
:1015C0009A8520E030E040E85FE30E9471038823C1
:1015D0002CF481E090E09E838D833FC06F817885FD
:1015E00089859A8520E03FEF4FE757E40E94110379
:1015F00018164CF56B857C858D859E8520E030E046
:1016000040E251E40E941702DC01CB01BC01CD0194
:101610000E944100DC01CB019E838D830FC088ECCA
:1016200090E09C838B838B819C810197F1F79C8355
:101630008B838D819E8101979E838D838D819E8179
:10164000009769F714C06F81788589859A850E9413
:101650004100DC01CB019E838D838D819E819A8325
:10166000898389819A810197F1F79A83898382E03E
:1016700065E040E00E94EC062F960FB6F894DEBFBE
:101680000FBECDBFCF91DF9108950F931F93DF93CE
:10169000CF93CDB7DEB7C654D0400FB6F894DEBFB7
:1016A0000FBECDBFFE01ED5BFF4F80E090E0A0E2FA
:1016B000B2E480839183A283B3838E01015C1F4FC8
:1016C000FE01ED5BFF4F608171818281938120E09B
:1016D00030E04AEF54E40E941702DC01CB01F8012C
:1016E00080839183A283B383FE01FF966081718121
:1016F0008281938120E030E040E85FE30E94710343
:1017000088232CF481E090E09EAF8DAF46C0FE01AF
:10171000FF96608171818281938120E03FEF4FE7E6
:1017200057E40E941103181664F5FE01ED5BFF4FAC
:10173000608171818281938120E030E040E251E458
:101740000E941702DC01CB01BC01CD010E944100C7
:10175000DC01CB019EAF8DAF0FC088EC90E09CAF59
:101760008BAF8BAD9CAD0197F1F79CAF8BAF8DAD7F
:101770009EAD01979EAF8DAF8DAD9EAD009769F781
:1017800016C0FE01FF9660817181828193810E9463
:101790004100DC01CB019EAF8DAF8DAD9EAD9AAF08
:1017A00089AF89AD9AAD0197F1F79AAF89AF88E318
:1017B0000E94A70A80E090E0A0E8BFE38DAB9EAB5B
:1017C000AFABB8AF6DA97EA98FA998AD20E030E08E
:1017D0004AEF54E40E941702DC01CB0189AB9AABBB
:1017E000ABABBCAB69A97AA98BA99CA920E030E07E
:1017F00040E85FE30E94710388232CF481E090E0CD
:1018000098AB8FA73FC069A97AA98BA99CA920E0B2
:101810003FEF4FE757E40E94110318164CF56DA9EE
:101820007EA98FA998AD20E030E040E251E40E940B
:101830001702DC01CB01BC01CD010E944100DC019B
:10184000CB0198AB8FA70FC088EC90E09EA78DA727
:101850008DA59EA50197F1F79EA78DA78FA598A9A5
:10186000019798AB8FA78FA598A9009769F714C027
:1018700069A97AA98BA99CA90E944100DC01CB012E
:1018800098AB8FA78FA598A99CA78BA78BA59CA584
:101890000197F1F79CA78BA78CE00E94A70A80E034
:1018A00090E0A0E8BFE38FA398A7A9A7BAA76FA16C
:1018B00078A589A59AA520E030E04AEF54E40E947B
:1018C0001702DC01CB018BA39CA3ADA3BEA36BA12C
:1018D0007CA18DA19EA120E030E040E85FE30E9462
:1018E000710388232CF481E090E09AA389A33FC080
:1018F0006BA17CA18DA19EA120E03FEF4FE757E4B3
:101900000E94110318164CF56FA178A589A59AA518
:1019100020E030E040E251E40E941702DC01CB01FC
:10192000BC01CD010E944100DC01CB019AA389A337
:101930000FC088EC90E098A38F8F8F8D98A10197AE
:10194000F1F798A38F8F89A19AA101979AA389A3F0
:1019500089A19AA1009769F714C06BA17CA18DA100
:101960009EA10E944100DC01CB019AA389A389A119
:101970009AA19E8F8D8F8D8D9E8D0197F1F79E8FF1
:101980008D8F8EE00E94A70A80E090E0A0E8BFE380
:10199000898F9A8FAB8FBC8F698D7A8D8B8D9C8D43
:1019A00020E030E04AEF54E40E941702DC01CB0152
:1019B0008D8B9E8BAF8BB88F6D897E898F89988D2B
:1019C00020E030E040E85FE30E94710388232CF4BC
:1019D00081E090E09C8B8B8B3FC06D897E898F89E5
:1019E000988D20E03FEF4FE757E40E94110318164F
:1019F0004CF5698D7A8D8B8D9C8D20E030E040E236
:101A000051E40E941702DC01CB01BC01CD010E9410
:101A10004100DC01CB019C8B8B8B0FC088EC90E0EC
:101A20009A8B898B89899A890197F1F79A8B898B8F
:101A30008B899C8901979C8B8B8B8B899C890097C8
:101A400069F714C06D897E898F89988D0E94410045
:101A5000DC01CB019C8B8B8B8B899C89988B8F872E
:101A60008F8598890197F1F7988B8F8781E00E9485
:101A7000A70A80E090E0A0E0B0E48B879C87AD8768
:101A8000BE876B857C858D859E8520E030E04AEFA2
:101A900054E40E941702DC01CB018F839887A98749
:101AA000BA876F81788589859A8520E030E040E8A3
:101AB0005FE30E94710388232CF481E090E09E8311
:101AC0008D833FC06F81788589859A8520E03FEFBF
:101AD0004FE757E40E94110318164CF56B857C857F
:101AE0008D859E8520E030E040E251E40E9417029F
:101AF000DC01CB01BC01CD010E944100DC01CB0126
:101B00009E838D830FC088EC90E09C838B838B81B8
:101B10009C810197F1F79C838B838D819E81019736
:101B20009E838D838D819E81009769F714C06F819C
:101B3000788589859A850E944100DC01CB019E83CE
:101B40008D838D819E819A83898389819A81019772
:101B5000F1F79A838983CA5BDF4F0FB6F894DEBF33
:101B60000FBECDBFCF91DF911F910F910895DF93ED
:101B7000CF9300D00F92CDB7DEB79B838A831982B3
:101B80000EC08981282F30E08A819B81FC01E20F01
:101B9000F31F80810E94090A89818F5F898389816F
:101BA000282F30E08A819B81FC01E20FF31F8081A6
:101BB000882339F70F900F900F90CF91DF91089500
:101BC000DF93CF9300D000D00F92CDB7DEB78A83DA
:101BD0006B8319828B81282F30E03D832C838C818D
:101BE0009D81009731F02C813D812130310521F01C
:101BF00006C08A81898303C08A81805C8983898148
:101C000080580E94A70A0F900F900F900F900F908E
:101C1000CF91DF910895DF93CF93CDB7DEB781E009
:101C20000E94A70ACF91DF910895DF93CF93CDB79C
:101C3000DEB727970FB6F894DEBF0FBECDBF8B83FC
:101C40007D836C834E832F838B81882F90E0880F58
:101C5000991F880F991F880F991F8A838A81805C3A
:101C60000E94A70A19820EC08981282F30E08C813A
:101C70009D81FC01E20FF31F80810E94090A898186
:101C80008F5F89838981883078F38E816F810E948C
:101C9000E00D8B810E94090A27960FB6F894DEBFEB
:101CA0000FBECDBFCF91DF910895DF93CF93CDB716
:101CB000DEB783E064E041E00E94C20583E065E0B6
:101CC00041E00E94C20583E066E041E00E94C20557
:101CD00083E064E041E00E94EC0683E065E041E0DF
:101CE0000E94EC0683E066E041E00E94EC0683E09F
:101CF00060E040E00E94C20583E061E040E00E94B5
:101D0000C20583E062E040E00E94C20583E063E038
:101D100040E00E94C20583E060E041E00E94EC06E2
:101D200083E061E041E00E94EC0683E062E041E094
:101D30000E94EC0683E063E041E00E94EC06CF9154
:101D4000DF910895DF93CF93CDB7DEB762970FB6DB
:101D5000F894DEBF0FBECDBF8FEF898B188AE9C024
:101D60008889882F90E0FC01EE55FF4F908183E039
:101D7000692F40E00E94EC061F86C8C0E0E3F0E057
:101D800040818F85882F90E0FC01E256FF4F9081C3
:101D90009E012E5E3F4F842F692FA9010E941208D9
:101DA0008A89882309F0AFC0E0E3F0E040818F85A5
:101DB000882F90E0FC01E256FF4F90819E012E5E3D
:101DC0003F4F842F692FA9010E94120880E090E004
:101DD000A8E4B2E48B879C87AD87BE876B857C8542
:101DE0008D859E8520E030E04AEF54E40E94170282
:101DF000DC01CB018F839887A987BA876F817885AB
:101E000089859A8520E030E040E85FE30E94710315
:101E100088232CF481E090E09E838D833FC06F8106
:101E2000788589859A8520E03FEF4FE757E40E9447
:101E3000110318164CF56B857C858D859E8520E0F9
:101E400030E040E251E40E941702DC01CB01BC010A
:101E5000CD010E944100DC01CB019E838D830FC028
:101E600088EC90E09C838B838B819C810197F1F7B8
:101E70009C838B838D819E8101979E838D838D8131
:101E80009E81009769F714C06F81788589859A854E
:101E90000E944100DC01CB019E838D838D819E8158
:101EA0009A83898389819A810197F1F79A8389833B
:101EB0008A89882341F58F85282F30E08889482F2B
:101EC00050E0C901880F991F820F931F840F951F3F
:101ED000FC01EB55FF4F8081898B12C0E0E3F0E0FD
:101EE00040818F85882F90E0FC01E256FF4F908162
:101EF0009E012E5E3F4F842F692FA9010E94120878
:101F00008A89882359F38F858F5F8F878F858430E7
:101F100008F434CF8889882F90E0FC01EE55FF4FFC
:101F2000908183E0692F41E00E94EC0688898F5FF1
:101F3000888B8889833008F413CF898962960FB61D
:101F4000F894DEBF0FBECDBFCF91DF910895DF9330
:101F5000CF93CDB7DEB7ABE3B0E0EBE3F0E0908139
:101F600081E089278C93CF91DF910895DF93CF9300
:101F7000CDB7DEB7EC970FB6F894DEBF0FBECDBF7E
:101F80009CAF8BAF1AAE19AE1DC280E060E041E09D
:101F90000E94EC0680E061E040E00E94EC0680E0F8
:101FA00062E040E00E94EC0680E063E040E00E94D6
:101FB000EC0680E090E0A0E2B1E48DAB9EABAFAB6D
:101FC000B8AF6DA97EA98FA998AD20E030E04AEFA7
:101FD00054E40E941702DC01CB0189AB9AABABAB96
:101FE000BCAB69A97AA98BA99CA920E030E040E8A4
:101FF0005FE30E94710388232CF481E090E098ABAA
:102000008FA73FC069A97AA98BA99CA920E03FEFBF
:102010004FE757E40E94110318164CF56DA97EA9ED
:102020008FA998AD20E030E040E251E40E94170211
:10203000DC01CB01BC01CD010E944100DC01CB01E0
:1020400098AB8FA70FC088EC90E09EA78DA78DA5B9
:102050009EA50197F1F79EA78DA78FA598A9019737
:1020600098AB8FA78FA598A9009769F714C069A9A5
:102070007AA98BA99CA90E944100DC01CB0198ABF5
:102080008FA78FA598A99CA78BA78BA59CA5019727
:10209000F1F79CA78BA780E060E040E00E94EC068F
:1020A00080E061E041E00E94EC0680E062E040E018
:1020B0000E94EC0680E063E040E00E94EC0680E0D5
:1020C00090E0A0E2B1E48FA398A7A9A7BAA76FA157
:1020D00078A589A59AA520E030E04AEF54E40E9453
:1020E0001702DC01CB018BA39CA3ADA3BEA36BA104
:1020F0007CA18DA19EA120E030E040E85FE30E943A
:10210000710388232CF481E090E09AA389A33FC057
:102110006BA17CA18DA19EA120E03FEF4FE757E48A
:102120000E94110318164CF56FA178A589A59AA5F0
:1021300020E030E040E251E40E941702DC01CB01D4
:10214000BC01CD010E944100DC01CB019AA389A30F
:102150000FC088EC90E098A38F8F8F8D98A1019786
:10216000F1F798A38F8F89A19AA101979AA389A3C8
:1021700089A19AA1009769F714C06BA17CA18DA1D8
:102180009EA10E944100DC01CB019AA389A389A1F1
:102190009AA19E8F8D8F8D8D9E8D0197F1F79E8FC9
:1021A0008D8F80E060E040E00E94EC0680E061E01E
:1021B00040E00E94EC0680E062E041E00E94EC0614
:1021C00080E063E040E00E94EC0680E090E0A0E266
:1021D000B1E4898F9A8FAB8FBC8F698D7A8D8B8D8F
:1021E0009C8D20E030E04AEF54E40E941702DC01AD
:1021F000CB018D8B9E8BAF8BB88F6D897E898F893C
:10220000988D20E030E040E85FE30E94710388236E
:102210002CF481E090E09C8B8B8B3FC06D897E8994
:102220008F89988D20E03FEF4FE757E40E9411031C
:1022300018164CF5698D7A8D8B8D9C8D20E030E0E1
:1022400040E251E40E941702DC01CB01BC01CD0148
:102250000E944100DC01CB019C8B8B8B0FC088EC72
:1022600090E09A8B898B89899A890197F1F79A8BEB
:10227000898B8B899C8901979C8B8B8B8B899C8903
:10228000009769F714C06D897E898F89988D0E94A7
:102290004100DC01CB019C8B8B8B8B899C89988BBB
:1022A0008F878F8598890197F1F7988B8F8780E0CA
:1022B00060E040E00E94EC0680E061E040E00E94C7
:1022C000EC0680E062E040E00E94EC0680E063E023
:1022D00041E00E94EC0680E090E0A0E2B1E48B8750
:1022E0009C87AD87BE876B857C858D859E8520E02C
:1022F00030E04AEF54E40E941702DC01CB018F83E7
:102300009887A987BA876F81788589859A8520E023
:1023100030E040E85FE30E94710388232CF481E001
:1023200090E09E838D833FC06F81788589859A85F3
:1023300020E03FEF4FE757E40E94110318164CF5D9
:102340006B857C858D859E8520E030E040E251E400
:102350000E941702DC01CB01BC01CD010E944100AB
:10236000DC01CB019E838D830FC088EC90E09C83C1
:102370008B838B819C810197F1F79C838B838D816B
:102380009E8101979E838D838D819E81009769F741
:1023900014C06F81788589859A850E944100DC018F
:1023A000CB019E838D838D819E819A8389838981D0
:1023B0009A810197F1F79A83898389AD9AAD019645
:1023C0009AAF89AF29AD3AAD8BAD9CAD28173907CF
:1023D00008F4DBCDEC960FB6F894DEBF0FBECDBF90
:1023E000CF91DF910895DF93CF93CDB7DEB7EC9710
:1023F0000FB6F894DEBF0FBECDBF9CAF8BAF1AAE49
:1024000019AE1DC280E060E040E00E94EC0680E072
:1024100061E040E00E94EC0680E062E040E00E9463
:10242000EC0680E063E041E00E94EC0680E090E092
:10243000A0E2B1E48DAB9EABAFABB8AF6DA97EA906
:102440008FA998AD20E030E04AEF54E40E941702D3
:10245000DC01CB0189AB9AABABABBCAB69A97AA968
:102460008BA99CA920E030E040E85FE30E94710363
:1024700088232CF481E090E098AB8FA73FC069A936
:102480007AA98BA99CA920E03FEF4FE757E40E946F
:10249000110318164CF56DA97EA98FA998AD20E0FF
:1024A00030E040E251E40E941702DC01CB01BC01A4
:1024B000CD010E944100DC01CB0198AB8FA70FC07A
:1024C00088EC90E09EA78DA78DA59EA50197F1F7BA
:1024D0009EA78DA78FA598A9019798AB8FA78FA5C9
:1024E00098A9009769F714C069A97AA98BA99CA932
:1024F0000E944100DC01CB0198AB8FA78FA598A962
:102500009CA78BA78BA59CA50197F1F79CA78BA7F0
:1025100080E060E040E00E94EC0680E061E040E0A6
:102520000E94EC0680E062E041E00E94EC0680E060
:1025300063E040E00E94EC0680E090E0A0E2B1E4BD
:102540008FA398A7A9A7BAA76FA178A589A59AA5CF
:1025500020E030E04AEF54E40E941702DC01CB0196
:102560008BA39CA3ADA3BEA36BA17CA18DA19EA1B7
:1025700020E030E040E85FE30E94710388232CF400
:1025800081E090E09AA389A33FC06BA17CA18DA1BB
:102590009EA120E03FEF4FE757E40E941103181679
:1025A0004CF56FA178A589A59AA520E030E040E21E
:1025B00051E40E941702DC01CB01BC01CD010E9455
:1025C0004100DC01CB019AA389A30FC088EC90E005
:1025D00098A38F8F8F8D98A10197F1F798A38F8F74
:1025E00089A19AA101979AA389A389A19AA1009789
:1025F00069F714C06BA17CA18DA19EA10E9441002E
:10260000DC01CB019AA389A389A19AA19E8F8D8F0A
:102610008D8D9E8D0197F1F79E8F8D8F80E060E00C
:1026200040E00E94EC0680E061E041E00E94EC06A0
:1026300080E062E040E00E94EC0680E063E040E081
:102640000E94EC0680E090E0A0E2B1E4898F9A8FCE
:10265000AB8FBC8F698D7A8D8B8D9C8D20E030E0A7
:102660004AEF54E40E941702DC01CB018D8B9E8B54
:10267000AF8BB88F6D897E898F89988D20E030E08F
:1026800040E85FE30E94710388232CF481E090E02E
:102690009C8B8B8B3FC06D897E898F89988D20E0C4
:1026A0003FEF4FE757E40E94110318164CF5698D70
:1026B0007A8D8B8D9C8D20E030E040E251E40E94C9
:1026C0001702DC01CB01BC01CD010E944100DC01FD
:1026D000CB019C8B8B8B0FC088EC90E09A8B898B05
:1026E00089899A890197F1F79A8B898B8B899C89C3
:1026F00001979C8B8B8B8B899C89009769F714C001
:102700006D897E898F89988D0E944100DC01CB0103
:102710009C8B8B8B8B899C89988B8F878F859889D5
:102720000197F1F7988B8F8780E060E041E00E948D
:10273000EC0680E061E040E00E94EC0680E062E0B0
:1027400040E00E94EC0680E063E040E00E94EC067E
:1027500080E090E0A0E2B1E48B879C87AD87BE87E4
:102760006B857C858D859E8520E030E04AEF54E4C2
:102770000E941702DC01CB018F839887A987BA8753
:102780006F81788589859A8520E030E040E85FE3B5
:102790000E94710388232CF481E090E09E838D8356
:1027A0003FC06F81788589859A8520E03FEF4FE7AC
:1027B00057E40E94110318164CF56B857C858D85B6
:1027C0009E8520E030E040E251E40E941702DC01E7
:1027D000CB01BC01CD010E944100DC01CB019E83F5
:1027E0008D830FC088EC90E09C838B838B819C81D0
:1027F0000197F1F79C838B838D819E8101979E8346
:102800008D838D819E81009769F714C06F817885D3
:1028100089859A850E944100DC01CB019E838D83CE
:102820008D819E819A83898389819A810197F1F7AD
:102830009A83898389AD9AAD01969AAF89AF29AD04
:102840003AAD8BAD9CAD2817390708F4DBCDEC967B
:102850000FB6F894DEBF0FBECDBFCF91DF910895C4
:10286000DF93CF93CDB7DEB7EF970FB6F894DEBF07
:102870000FBECDBF0E949B050E94550E0E94450BC6
:102880008FEF8FAF8FEF8EAF8FEF8DAF8FEF8CAF5E
:1028900080E690E00E94B70D03C00E94A20E8FAFA9
:1028A0008FAD8F3FD1F30E940B0E80E090E0A8E443
:1028B000B2E48DAB9EABAFABB8AF6DA97EA98FA9CB
:1028C00098AD20E030E04AEF54E40E941702DC01AA
:1028D000CB0189AB9AABABABBCAB69A97AA98BA98D
:1028E0009CA920E030E040E85FE30E947103882368
:1028F0002CF481E090E098AB8FA73FC069A97AA93A
:102900008BA99CA920E03FEF4FE757E40E941103F9
:1029100018164CF56DA97EA98FA998AD20E030E07E
:1029200040E251E40E941702DC01CB01BC01CD0161
:102930000E944100DC01CB0198AB8FA70FC088EC4F
:1029400090E09EA78DA78DA59EA50197F1F79EA764
:102950008DA78FA598A9019798AB8FA78FA598A948
:10296000009769F714C069A97AA98BA99CA90E944C
:102970004100DC01CB0198AB8FA78FA598A99CA73C
:102980008BA78BA59CA50197F1F79CA78BA78FAD73
:10299000805D0E94090A8FAD813009F454C18FAD6A
:1029A000823009F04CC18EE690E00E94B70D03C062
:1029B0000E94A20E8EAF8EAD8F3FD1F38EAD805DA3
:1029C0000E94090A03C00E94A20E8DAF8DAD8F3FF9
:1029D000D1F38DAD805D0E94090A03C00E94A20E52
:1029E0008CAF8CAD8F3FD1F38CAD805D0E94090A16
:1029F0008EAD282F30E084E690E0289FA001299F2B
:102A0000500D389F500D11248DAD882F90E09C0102
:102A1000220F331FC901880F991F880F991F820F3A
:102A2000931F9A01280F391F8CAD882F90E0820FD9
:102A3000931F9BAF8AAF80E090E0A8ECB2E48FA335
:102A400098A7A9A7BAA76FA178A589A59AA520E0FC
:102A500030E04AEF54E40E941702DC01CB018BA363
:102A60009CA3ADA3BEA36BA17CA18DA19EA120E0E0
:102A700030E040E85FE30E94710388232CF481E09A
:102A800090E09AA389A33FC06BA17CA18DA19EA1D8
:102A900020E03FEF4FE757E40E94110318164CF572
:102AA0006FA178A589A59AA520E030E040E251E425
:102AB0000E941702DC01CB01BC01CD010E94410044
:102AC000DC01CB019AA389A30FC088EC90E098A306
:102AD0008F8F8F8D98A10197F1F798A38F8F89A180
:102AE0009AA101979AA389A389A19AA1009769F74E
:102AF00014C06BA17CA18DA19EA10E944100DC01AC
:102B0000CB019AA389A389A19AA19E8F8D8F8D8DC8
:102B10009E8D0197F1F79E8F8D8F0E940B0E80E0A6
:102B200090E0A8E4B2E4898F9A8FAB8FBC8F698D57
:102B30007A8D8B8D9C8D20E030E04AEF54E40E942A
:102B40001702DC01CB018D8B9E8BAF8BB88F6D890B
:102B50007E898F89988D20E030E040E85FE30E9415
:102B6000710388232CF481E090E09C8B8B8B3FC019
:102B70006D897E898F89988D20E03FEF4FE757E47C
:102B80000E94110318164CF5698D7A8D8B8D9C8DE2
:102B900020E030E040E251E40E941702DC01CB016A
:102BA000BC01CD010E944100DC01CB019C8B8B8BD1
:102BB0000FC088EC90E09A8B898B89899A8901975C
:102BC000F1F79A8B898B8B899C8901979C8B8B8BD6
:102BD0008B899C89009769F714C06D897E898F89DC
:102BE000988D0E944100DC01CB019C8B8B8B8B89E3
:102BF0009C89988B8F878F8598890197F1F7988B9F
:102C00008F8780E890E00E94B70D8FEF89AF03C0F7
:102C10000E94A20E89AF89AD8F3FD1F389AD805D4F
:102C20000E94090A89AD813029F48AAD9BAD0E94CA
:102C3000B60F09C08AAD9BAD0E94F31104C089E8AC
:102C400090E00E94B70D80E090E0AAEFB4E48B879B
:102C50009C87AD87BE876B857C858D859E8520E0B2
:102C600030E04AEF54E40E941702DC01CB018F836D
:102C70009887A987BA876F81788589859A8520E0AA
:102C800030E040E85FE30E94710388232CF481E088
:102C900090E09E838D833FC06F81788589859A857A
:102CA00020E03FEF4FE757E40E94110318164CF560
:102CB0006B857C858D859E8520E030E040E251E487
:102CC0000E941702DC01CB01BC01CD010E94410032
:102CD000DC01CB019E838D830FC088EC90E09C8348
:102CE0008B838B819C810197F1F79C838B838D81F2
:102CF0009E8101979E838D838D819E81009769F7C8
:102D000014C06F81788589859A850E944100DC0115
:102D1000CB019E838D838D819E819A838983898156
:102D20009A810197F1F79A8389830E940B0EA8CDAF
:102D30002F923F924F925F926F927F928F929F92CB
:102D4000AF92BF92CF92DF92EF92FF920F931F93B9
:102D5000CF93DF93CDB7DEB7CA1BDB0B0FB6F8946A
:102D6000DEBF0FBECDBF09942A88398848885F84AA
:102D70006E847D848C849B84AA84B984C884DF801B
:102D8000EE80FD800C811B81AA81B981CE0FD11DFF
:102D90000FB6F894DEBF0FBECDBFED010895F894D5
:022DA000FFCF63
:102DA2003144436D6F325374657070657200456EC5
:102DB20074657220737465707320202020202000B7
:102DC200456E7465726469720077726F6E67206512
:102DD2006E74727921000000000000000000000102
:102DE20002030405060102030405060708090B0095
:0C2DF2000CC0F9A4B0999282F880900007
:00000001FF
