:100000000C942A000C943D0A0C94640A0C948B0AFC
:100010000C9447000C9447000C9447000C94470044
:100020000C9447000C94D0080C9456090C942F099A
:100030000C9447000C9497070C9447000C948B0782
:100040000C94C80C0C9447000C9447000C94470087
:100050000C94470011241FBECFE5D8E0DEBFCDBF12
:1000600011E0A0E6B0E0E8ECFAE202C005900D92E3
:10007000A23CB107D9F711E0A2ECB1E001C01D929A
:10008000A93DB107E1F70E9480140C9462150C940D
:100090000000EF92FF920F931F937B018C0120E0F1
:1000A00030E040E05FE40E94F50388238CF0C80153
:1000B000B70120E030E040E05FE40E94C1010E940F
:1000C000B3049B01AC01205030404040504806C072
:1000D000C801B7010E94B3049B01AC01B901CA0178
:1000E0001F910F91FF90EF900895A0E0B0E0EBE733
:1000F000F0E00C942B15DC012B01FA019C9192305D
:1001000008F439C1EB018881823008F433C194309E
:1001100069F4843009F02FC111969C91119789815F
:10012000981709F428C1AFE9B0E025C1843009F47B
:1001300021C18230A9F4923009F01DC19A01AD01AC
:1001400088E0EA010990AE01E90109929E0181501F
:10015000C1F7E201898111969C918923818308C1AD
:10016000923009F407C112962D903C901397EB0141
:100170008A819B811496AD90BD90CD90DC901797AD
:10018000EC80FD800E811F819101281B390BB90184
:1001900037FF04C066277727621B730B6032710537
:1001A0000CF061C0121613066CF537014801062EDB
:1001B00004C096948794779467940A94D2F721E0C8
:1001C00030E040E050E004C0220F331F441F551FB1
:1001D0006A95D2F721503040404050402E213F21B7
:1001E00040235123211531054105510521F021E01E
:1001F00030E040E050E079018A01E628F72808293C
:1002000019293CC0232BD1F1260E371E350146019A
:10021000062E04C096948794779467940A94D2F734
:1002200021E030E040E050E004C0220F331F441FC3
:10023000551F6A95D2F721503040404050402A2146
:100240003B214C215D21211531054105510521F04E
:1002500021E030E040E050E059016A01A628B728CB
:10026000C828D9280BC0821593052CF01C01AA249C
:10027000BB24650103C0EE24FF24870111969C91E5
:10028000D20111968C91981709F445C0992339F041
:10029000A80197012A193B094C095D0906C0A6016E
:1002A00095012E193F09400B510B57FD08C01182D3
:1002B0003382228224833583468357831DC081E0A5
:1002C00081833382228288279927DC01821B930B4A
:1002D000A40BB50B84839583A683B7830DC0220F2F
:1002E000331F441F551F24833583468357838281E0
:1002F000938101979383828324813581468157813D
:10030000DA01C9010197A109B1098F5F9F4FAF4F72
:10031000BF4328F30BC0918333822282EA0CFB1C7B
:100320000C1D1D1DE482F5820683178383E0808304
:10033000248135814681578157FF1AC0C901AA27F8
:1003400097FDA095BA2F81709070A070B0705695EF
:10035000479537952795822B932BA42BB52B848318
:100360009583A683B7838281938101969383828349
:10037000DF0101C0D201CD01CDB7DEB7E2E10C94BF
:100380004715A0E2B0E0E7ECF1E00C943715698383
:100390007A838B839C832D833E834F835887E9E048
:1003A000EE2EF12CEC0EFD1ECE010196B7010E943F
:1003B000A4068E010F5E1F4FCE010596B8010E9464
:1003C000A4068A8991E089278A8BC701B801AE010A
:1003D000475E5F4F0E9475000E94CF05A096E6E041
:1003E0000C945315A0E2B0E0E8EFF1E00C9437155F
:1003F00069837A838B839C832D833E834F835887C5
:10040000F9E0EF2EF12CEC0EFD1ECE010196B701A6
:100410000E94A4068E010F5E1F4FCE010596B80103
:100420000E94A406C701B801AE01475E5F4F0E945B
:1004300075000E94CF05A096E6E00C945315A0E24B
:10044000B0E0E5E2F2E00C942B1569837A838B83AC
:100450009C832D833E834F835887CE010196BE0136
:10046000675F7F4F0E94A406CE010596BE016F5EB6
:100470007F4F0E94A4069985923088F08989823046
:10048000C8F0943019F4823051F404C0843029F457
:10049000923081F48FE990E0C6C0923049F420E0B8
:1004A0009A858A89981321E02A87CE010996BBC0D4
:1004B000823049F420E09A858A89981321E02A8BBA
:1004C000CE014196B0C02D843E844F8458886D88FB
:1004D0007E888F88988CEE24FF248701AA24BB2471
:1004E000650140E050E060E070E0E0E0F0E0C10174
:1004F00081709070892BE9F0E60CF71C081D191D1E
:100500009A01AB012A0D3B1D4C1D5D1D80E090E062
:10051000A0E0B0E0E614F7040805190520F481E036
:1005200090E0A0E0B0E0BA01A901480F591F6A1F8E
:100530007B1FAA0CBB1CCC1CDD1C97FE08C081E0F5
:1005400090E0A0E0B0E0A82AB92ACA2ADB2A3196B6
:10055000E032F10549F0660C771C881C991C569412
:10056000479437942794C3CFFA85EA892B893C892D
:100570008B859C85280F391F2E5F3F4F17C0CA01FE
:1005800081709070892B61F016950795F794E79428
:1005900080E090E0A0E0B0E8E82AF92A0A2B1B2BC3
:1005A00076956795579547952F5F3F4F77FDE7CF36
:1005B0000CC0440F551F661F771F17FD4160EE0CDE
:1005C000FF1C001F111F21503040403090E05907A0
:1005D00090E0690790E4790760F32B8F3C8FDB0193
:1005E000CA018F779070A070B07080349105A1051A
:1005F000B10561F447FD0AC0E114F10401051105DC
:1006000029F0405C5F4F6F4F7F4F40781A8EFE1786
:1006100011F081E08A8F4D8F5E8F6F8F78A383E01A
:10062000898FCE0149960E94CF05A096E2E10C94F5
:100630004715A8E1B0E0EFE1F3E00C9433156983CE
:100640007A838B839C832D833E834F835887B9E0C5
:10065000EB2EF12CEC0EFD1ECE010196B7010E948F
:10066000A4068E010F5E1F4FCE010596B8010E94B1
:10067000A4062985223008F47EC03989323010F46E
:10068000B8017CC08A859A8989278A87243011F02D
:10069000223031F4231709F06EC06FE970E06EC0AC
:1006A000343039F41D861E861F86188A1C861B86E8
:1006B00004C0323021F484E08987B7015FC02B8504
:1006C0003C858B899C89281B390B3C872B87ED84C3
:1006D000FE840F851889AD88BE88CF88D88CEA142F
:1006E000FB040C051D0540F4EE0CFF1C001F111F40
:1006F000215030403C872B8720E030E040E050E044
:1007000080E090E0A0E0B0E460E070E0EA14FB0478
:100710000C051D0540F0282B392B4A2B5B2BEA18C2
:10072000FB080C091D09B695A79597958795EE0CC2
:10073000FF1C001F111F6F5F7F4F6F31710531F775
:10074000DA01C9018F779070A070B0708034910584
:10075000A105B10561F427FD0AC0E114F10401050A
:10076000110529F0205C3F4F4F4F5F4F20782D87B8
:100770003E874F87588BBE01675F7F4FCB010E943A
:10078000CF056896EAE00C944F15A8E1B0E0EBECD9
:10079000F3E00C94371569837A838B839C832D83D4
:1007A0003E834F83588789E0E82EF12CEC0EFD1E26
:1007B000CE010196B7010E94A4068E010F5E1F4F65
:1007C000CE010596B8010E94A4068985823040F0CA
:1007D0008989823028F0C701B8010E941C0701C036
:1007E0008FEF6896E6E00C945315A8E1B0E0EBEFCC
:1007F000F3E00C94371569837A838B839C832D8374
:100800003E834F83588789E0E82EF12CEC0EFD1EC5
:10081000CE010196B7010E94A4068E010F5E1F4F04
:10082000CE010596B8010E94A4068985823040F069
:100830008989823028F0C701B8010E941C0701C0D5
:100840008FEF6896E6E00C945315A8E1B0E0EBE278
:10085000F4E00C94371569837A838B839C832D8312
:100860003E834F83588789E0E82EF12CEC0EFD1E65
:10087000CE010196B7010E94A4068E010F5E1F4FA4
:10088000CE010596B8010E94A4068985823040F009
:100890008989823028F0C701B8010E941C0701C075
:1008A00081E06896E6E00C945315A8E0B0E0EBE533
:1008B000F4E00C9434159B01AC0183E08983DA01E8
:1008C000C9018827B7FD83959927AA27BB27B82E8A
:1008D000211531054105510519F482E089833AC09B
:1008E0008823A9F0203080E0380780E0480780E8BE
:1008F000580729F460E070E080E09FEC30C0EE24FF
:10090000FF248701E21AF30A040B150B02C07901D8
:100910008A018EE1C82ED12CDC82CB82ED82FE8250
:100920000F831887C801B7010E9480050197181628
:10093000190684F4082E04C0EE0CFF1C001F111FC2
:100940000A94D2F7ED82FE820F831887C81AD90A5B
:10095000DC82CB82BA82CE0101960E94CF05289616
:10096000E9E00C945015ACE0B0E0E9EBF4E00C9455
:100970003B1569837A838B839C83CE010196BE01EC
:100980006B5F7F4F0E94A4068D81823061F18230BF
:1009900050F1843021F48E81882351F12EC02F81B3
:1009A000388537FD20C06E812F3131051CF066235C
:1009B000F9F023C08EE190E0821B930B29853A85E4
:1009C0004B855C8504C056954795379527958A9544
:1009D000D2F76623B1F050954095309521953F4F61
:1009E0004F4F5F4F0EC020E030E040E050E009C0C4
:1009F0002FEF3FEF4FEF5FE704C020E030E040E033
:100A000050E8B901CA012C96E2E00C945715A8E011
:100A1000B0E0EDE0F5E00C9433157B018C0161153D
:100A200071058105910519F482E0898360C083E036
:100A300089838EE1C82ED12CDC82CB82ED82FE82AE
:100A40000F831887C801B7010E948005FC01319708
:100A5000F7FF3BC0222733272E1B3F0B57016801AE
:100A6000022E04C0D694C794B794A7940A94D2F7E0
:100A700040E050E060E070E081E090E0A0E0B0E0B5
:100A800004C0880F991FAA1FBB1F2A95D2F7019790
:100A9000A109B1098E219F21A023B1230097A105AF
:100AA000B10521F041E050E060E070E04A295B29A7
:100AB0006C297D294D835E836F8378878EE190E07A
:100AC0008E1B9F0B9C838B8312C0309781F00E2E60
:100AD00004C0EE0CFF1C001F111F0A94D2F7ED8218
:100AE000FE820F831887CE1ADF0ADC82CB821A823D
:100AF000CE0101960E94CF052896EAE00C944F158E
:100B0000EF92FF920F931F937B018C0180E0E81618
:100B100080E0F80681E0080780E0180788F48FEF8E
:100B2000E816F1040105110531F028F088E090E0A5
:100B3000A0E0B0E017C080E090E0A0E0B0E012C01C
:100B400080E0E81680E0F80680E0080781E01807FA
:100B500028F088E190E0A0E0B0E004C080E190E0FF
:100B6000A0E0B0E020E230E040E050E0281B390B8C
:100B70004A0B5B0B04C016950795F794E7948A958A
:100B8000D2F7F701E955FF4F8081281B3109410950
:100B90005109C9011F910F91FF90EF900895DF92C5
:100BA000EF92FF920F931F93FC01E480F580068182
:100BB0001781D1808081823048F480E090E0A0E10C
:100BC000B0E0E82AF92A0A2B1B2BA5C0843009F4CF
:100BD0009FC0823021F4EE24FF24870105C0E11478
:100BE000F1040105110519F4E0E0F0E096C062811E
:100BF00073819FEF623879070CF05BC022E83FEF0A
:100C0000261B370B2A3131052CF020E030E040E084
:100C100050E02AC0B801A701022E04C0769567955E
:100C2000579547950A94D2F781E090E0A0E0B0E0B4
:100C300004C0880F991FAA1FBB1F2A95D2F70197DE
:100C4000A109B1098E219F21A023B1230097A105FD
:100C5000B10521F081E090E0A0E0B0E09A01AB01A5
:100C6000282B392B4A2B5B2BDA01C9018F77907027
:100C7000A070B07080349105A105B10539F427FF4B
:100C800009C0205C3F4F4F4F5F4F04C0215C3F4F76
:100C90004F4F5F4FE0E0F0E02030A0E03A07A0E0E7
:100CA0004A07A0E45A0710F0E1E0F0E079018A0178
:100CB00027C06038710564F5FB01E158FF4FD8018A
:100CC000C7018F779070A070B07080349105A10536
:100CD000B10539F4E7FE0DC080E490E0A0E0B0E09B
:100CE00004C08FE390E0A0E0B0E0E80EF91E0A1F18
:100CF0001B1F17FF05C016950795F794E7943196CB
:100D000087E016950795F794E7948A95D1F705C083
:100D1000EE24FF248701EFEFF0E06E2F6795662742
:100D20006795902F9F77D794DD24D7948E2F869543
:100D3000492F462B582F5D29B701CA011F910F91EA
:100D4000FF90EF90DF900895FC01DB01408151811D
:100D50002281622F6F7770E0221F2227221F93814A
:100D6000892F880F822B282F30E0991F9927991FF0
:100D700011969C93119721153105A9F5411551053F
:100D80006105710511F482E037C082E89FEF139688
:100D90009C938E9312979A01AB0167E0220F331F49
:100DA000441F551F6A95D1F783E08C930DC0220F25
:100DB000331F441F551F12968D919C9113970197D5
:100DC00013969C938E931297203080E0380780E032
:100DD000480780E4580758F314962D933D934D939C
:100DE0005C93179708952F3F310579F4411551050C
:100DF0006105710519F484E08C93089564FF03C0C4
:100E000081E08C9312C01C9210C02F573040139673
:100E10003C932E93129783E08C9387E0440F551FE9
:100E2000661F771F8A95D1F7706414964D935D9372
:100E30006D937C93179708951F93DC01FB019C91A0
:100E4000923008F447C08081823008F443C0943067
:100E500051F411961C91843099F58181682F70E0CE
:100E6000611B71093FC0843021F0923031F482302F
:100E7000B9F18181882389F12DC011961C911197B8
:100E80008230F1F081811817D9F412962D913C919E
:100E90001397828193818217930794F0281739075B
:100EA000BCF014968D919D910D90BC91A02D248144
:100EB000358146815781281739074A075B0718F49F
:100EC000112341F00AC082179307A407B50740F425
:100ED000112319F061E070E005C06FEF7FEF02C0F1
:100EE00060E070E0CB011F9108958093C50181E01F
:100EF0008093C2018091C5018CB98091C20181307B
:100F0000E1F308958091C4018823E1F31092C401B4
:100F10008091C30108951F920F920FB60F92112472
:100F20001092C2010F900FBE0F901F9018951F9244
:100F30000F920FB60F9211242F933F934F935F930D
:100F40006F937F938F939F93AF93BF93EF93FF9391
:100F50008CB18093C30181E08093C4018091C4016E
:100F60008823E1F31092C4018091C3018436F1F02B
:100F7000853638F48236A1F0833618F5813619F5B6
:100F80000CC08E36A9F08F3618F48536E1F40AC00D
:100F90008F36A1F08037B9F40EC00E94141113C02F
:100FA00081E001C082E00E94F6100DC083E0FBCF1B
:100FB0000E948C0E08C00E94840E05C00E943D1243
:100FC00002C00E944112FF91EF91BF91AF919F919A
:100FD0008F917F916F915F914F913F912F910F90E2
:100FE0000FBE0F901F90189583E060E040E00E94D4
:100FF000BA0A83E061E041E00E94BA0A86E880BD57
:1010000083E389B9539A549A579A569A78940895D3
:10101000982F86B7806486BF82E080B9089A099AC3
:10102000992311F0990F92B986B7846086BF08950D
:10103000880F82B986B7806486BF86B7846086BF12
:10104000089586B7806286BF86B7806886BF06B679
:1010500007FEFDCF81B190E0887F883009F091E0F4
:10106000892F089586B7846A86BF06B607FEFDCF2E
:1010700081B1887F803111F082E0089580E0089589
:10108000880F83B9189886B78F7D86BF86B780682A
:1010900086BF06B607FEFDCF81B1887F883111F08B
:1010A00083E0089580E00895880F83B9189A86B781
:1010B0008F7D86BF86B7806886BF06B607FEFDCFE8
:1010C00081B1887F803411F084E0089580E0089534
:1010D00083B986B7806886BF06B607FEFDCF81B1AB
:1010E000887F883211F085E0089580E00895FC0142
:1010F00086B7806886BF06B607FEFDCF81B1887FC0
:10110000803511F086E0089583B1808380E00895F2
:10111000FC0186B78F7B86BF86B7806886BF06B620
:1011200007FEFDCF86B7806486BF81B1887F883592
:1011300011F087E0089583B1808380E0089586B739
:10114000806186BF86B7806886BF08958FB58E7F21
:101150008FBD8FB582608FBD8EB588608EBD8EB518
:1011600080618EBD8FB58F7B8FBD8FB580688FBD41
:1011700080E29EE497BD86BD8EB58E7F8EBD8EB516
:1011800082608EBD8EB58B7F8EBD0895009711F461
:1011900080E008959093C7018093C60181E008958F
:1011A0001F920F920FB60F9211242F933F934F93DC
:1011B0005F936F937F938F939F93AF93BF93EF93BF
:1011C000FF93E091C601F091C7010995FF91EF915E
:1011D000BF91AF919F918F917F916F915F914F914F
:1011E0003F912F910F900FBE0F901F90189583B7CE
:1011F000886083BF83B7806483BF83B7887F83BFE2
:1012000083B7836083BF089582BF08958CBF08951C
:10121000009711F480E008959093CB018093CA0168
:1012200081E00895009711F480E008959093C9013A
:101230008093C80181E00895882319F0813071F40A
:1012400007C083B78F7E83BF83B7806283BF089553
:1012500083B7806183BF83B7806283BF08951F9285
:101260000F920FB60F9211242F933F934F935F93DA
:101270006F937F938F939F93AF93BF93EF93FF935E
:10128000E091CA01F091CB010995FF91EF91BF91D7
:10129000AF919F918F917F916F915F914F913F910E
:1012A0002F910F900FBE0F901F9018951F920F92C5
:1012B0000FB60F9211242F933F934F935F936F9329
:1012C0007F938F939F93AF93BF93EF93FF93E0919F
:1012D000C801F091C9010995FF91EF91BF91AF91BC
:1012E0009F918F917F916F915F914F913F912F913E
:1012F0000F900FBE0F901F9018958FB9779BFECF60
:101300008FB108956D9A719A882369F46C9A67E099
:1013100041E00E94BA0A80E065E041E00E94BA0A1A
:1013200080E066E012C06C9880E067E040E00E94D8
:10133000BA0A80E065E040E00E94BA0A80E066E018
:1013400041E00E94BA0A80E064E040E00E94BA0AEC
:101350006E9A0895813081F0813018F0823019F54D
:1013600016C0662319F06130F1F403C08BB78064B6
:1013700015C08BB78F7B12C0662319F0613099F4CA
:1013800003C08BB780680AC08BB78F7707C066230E
:1013900019F0613041F404C08BB780628BBF0895AF
:1013A0008BB78F7D8BBF0895813009F1813020F09C
:1013B000823009F044C037C0613051F0613028F00C
:1013C000623061F06330D9F50CC085B78E7F02C002
:1013D00085B7816085BF85B78D7F23C085B78E7F38
:1013E00002C085B7816085BF85B782601AC0613051
:1013F00051F0613028F0623061F0633001F50CC0CB
:1014000085B78B7F02C085B7846085BF85B7877F2E
:1014100008C085B78B7F02C085B7846085BF85B75C
:10142000886085BF0895623019F0633041F404C0CC
:1014300084B78F7B84BF089584B7806484BF089588
:101440006115710511F480E00895813051F081300B
:1014500018F0823051F40BC07093CD016093CC0131
:1014600004C07093CF016093CE0181E00895709322
:10147000D1016093D00181E008951F920F920FB6C1
:101480000F9211242F933F934F935F936F937F930A
:101490008F939F93AF93BF93EF93FF93E091CC0112
:1014A000F091CD010995FF91EF91BF91AF919F917F
:1014B0008F917F916F915F914F913F912F910F90FD
:1014C0000FBE0F901F9018951F920F920FB60F929C
:1014D00011242F933F934F935F936F937F938F9339
:1014E0009F93AF93BF93EF93FF93E091CE01F09161
:1014F000CF010995FF91EF91BF91AF919F918F918E
:101500007F916F915F914F913F912F910F900FBEFF
:101510000F901F9018951F920F920FB60F921124E3
:101520002F933F934F935F936F937F938F939F93EB
:10153000AF93BF93EF93FF93E091D001F091D1016E
:101540000995FF91EF91BF91AF919F918F917F91FD
:101550006F915F914F913F912F910F900FBE0F9020
:101560001F9018958FB780688FBF08958FB78F77BA
:101570008FBF0895843008F080C0683008F07DC0C7
:10158000423008F07AC0813029F1813038F0823061
:1015900009F43CC0833009F072C053C0442371F099
:1015A000413009F06CC02AB381E090E002C0880F9E
:1015B000991F6A95E2F7282B2ABB5DC02AB381E008
:1015C00090E002C0880F991F6A95E2F78095822308
:1015D0008ABB51C0442371F0413009F050C027B399
:1015E00081E090E002C0880F991F6A95E2F7282BEE
:1015F00027BB41C027B381E090E002C0880F991F4C
:101600006A95E2F78095822387BB35C0442369F051
:101610004130A9F524B381E090E002C0880F991F02
:101620006A95E2F7282B24BB26C024B381E090E022
:1016300002C0880F991F6A95E2F78095822384BBC8
:101640001AC0442369F04130D1F421B381E090E025
:1016500002C0880F991F6A95E2F7282B21BB0BC0A7
:1016600021B381E090E002C0880F991F6A95E2F7EC
:101670008095822381BB81E0089580E0089581E018
:101680000895683008F07AC0813029F1813038F04F
:10169000823009F43CC0833009F070C053C0442349
:1016A00071F0413009F06AC02BB381E090E002C0D4
:1016B000880F991F6A95E2F7282B2BBB5DC02BB3CF
:1016C00081E090E002C0880F991F6A95E2F780954B
:1016D00082238BBB51C0442371F0413009F04EC0CE
:1016E00028B381E090E002C0880F991F6A95E2F765
:1016F000282B28BB41C028B381E090E002C0880FAE
:10170000991F6A95E2F78095822388BB35C04423F0
:1017100069F0413099F525B381E090E002C0880F6F
:10172000991F6A95E2F7282B25BB26C025B381E0D7
:1017300090E002C0880F991F6A95E2F78095822396
:1017400085BB1AC0442369F04130C1F422B381E063
:1017500090E002C0880F991F6A95E2F7282B22BB00
:101760000BC022B381E090E002C0880F991F6A95F8
:10177000E2F78095822382BB81E0089580E008959E
:10178000FA0141155105D1F0813049F0813028F03E
:10179000823039F0833091F406C089B305C086B336
:1017A00003C083B301C080B390E002C095958795D4
:1017B0006A95E2F78170808381E0089580E0089562
:1017C000623070F5813081F0813028F08230A9F0EC
:1017D000833031F51BC0662329F0613019F58FEF96
:1017E0008ABB1CC01ABA1AC0662329F06130D1F432
:1017F0008FEF87BB13C017BA11C0662329F0613081
:1018000089F48FEF84BB0AC014BA08C0662329F09C
:10181000613041F48FEF81BB01C011BA81E00895BE
:1018200080E0089581E0089580E061E00E94E00B8F
:1018300082E061E00E94E00B83E061E00E94E00B47
:1018400081E061E00E94E00B0895813051F0813029
:1018500030F0823041F0833049F080E008956BBB76
:1018600003C068BB01C065BB81E0089562BB81E035
:101870000895FB016115710599F0813049F08130BF
:1018800028F0823039F0833059F406C089B305C09E
:1018900086B303C083B301C080B3808381E0089521
:1018A00080E00895683000F5813091F0813028F0B3
:1018B000823019F08330C1F40BC02BB381E090E08B
:1018C00002C0880F991F6A95E2F728272BBB0AC030
:1018D00028B381E090E002C0880F991F6A95E2F773
:1018E000282728BB81E0089580E0089533983E9A28
:1018F0003F983098319A329A379A0895982FFB0181
:101900006115710511F481E0089587B1807E87B972
:1019100087B1892B87B9369A80E090E001C00196A3
:10192000349B04C08055934C31F40CC023EC8035BB
:101930009207A9F707C0349A84B195B19183808347
:1019400080E0089582E00895982F8091A70181306A
:1019500011F083E0089561157105C1F0411551053D
:10196000A9F082E08093A7017093D3016093D20124
:101970005093D5014093D40187B1807E87B987B158
:10198000892B87B9369A339A80E0089581E00895CB
:101990001F920F920FB60F9211242F933F934F93E4
:1019A0005F936F937F938F939F93AF93BF93EF93C7
:1019B000FF9384B195B1E091D201F091D30191836D
:1019C0008083E091D401F091D5010995339881E0AD
:1019D0008093A701FF91EF91BF91AF919F918F915C
:1019E0007F916F915F914F913F912F910F900FBE1B
:1019F0000F901F90189540E050E00BC020E030E0C1
:101A000000002F5F3F4F63E020323607C9F74F5F7A
:101A10005F4F4817590790F30895411141E00E9424
:101A2000410B0895442311F441E001C040E00E94BD
:101A3000410B08958A3010F081E00895E82FF0E01E
:101A4000E755FE4F80E060810E94250C80E00895FC
:101A50000E94140C08951F93DF93CF9300D0CDB74D
:101A6000DEB70E94760C80E061E040E00E94BA0A96
:101A700081E0BE016F5F7F4F0E947E0C10E06981A4
:101A80007A8180E090E00E94070526E636E646E08F
:101A900050E40E941F0220E030E84BEB54E40E9427
:101AA000C50318160CF411E0812F0F900F90CF9101
:101AB000DF911F9108955F926F927F928F929F9214
:101AC000AF92BF92CF92DF92EF92FF920F931F934C
:101AD000DF93CF93CDB7DEB72A970FB6F894DEBF6A
:101AE0000FBECDBF7B018C015A01522E20E030E0A9
:101AF00040E050E00E94250487FD02C0CC2409C0CC
:101B00008DE2F501808317FB109517F91095CC2411
:101B1000C394C801B7010E94B3043B01611571056C
:101B200039F09B0140E04E010894811C911C15C0C6
:101B300080E3898341E014C0F401E40FF11DC90181
:101B40006AE070E00E94E214805D80834F5FC9010B
:101B50006AE070E00E94E2149B011216130664F31F
:101B6000DE011196A40FB11D9C2D06C0F501E90FF1
:101B7000F11D8C9180839F5F1197AC17BD07B1F762
:101B8000C40EF501EC0DF11D8EE28083B3018827B0
:101B900077FD8095982F0E9455049B01AC01C801E8
:101BA000B7010E94C10120E034E244E759E40E94F9
:101BB0001F020E9449009B01AC0110E009C0B9015D
:101BC000CA012AE030E040E050E00E94F5141F5FB7
:101BD0001515A8F39C2C9394792C882422C0B90164
:101BE000CA012AE030E040E050E00E94C3147B01CB
:101BF0008C016501C70CD11C20E432E44FE050E0B9
:101C00000E94F514205DF60120837394C801B7018A
:101C100020E432E44FE050E00E94F5149B01AC0157
:101C200083948514E0F2950CA90CB11CF501108287
:101C30002A960FB6F894DEBF0FBECDBFCF91DF91CD
:101C40001F910F91FF90EF90DF90CF90BF90AF90DA
:101C50009F908F907F906F905F900895AF92BF920A
:101C6000CF92DF92FF920F931F93DF93CF9300D019
:101C7000CDB7DEB70E94760C80E061E040E00E94C4
:101C8000BA0A00E010E0FF245E010894A11CB11C18
:101C900080E1C82E87E2D82E81E0B5010E947E0C3B
:101CA00089819A81080F191FC6010197F1F7F394F2
:101CB0008AE0F81689F7B80180E090E00E940705F5
:101CC00020E030E040E251E40E94190320E030E0DF
:101CD00040EA50E40E941F0220E030E040E85AE36E
:101CE0000E941F0220E030E048EC52E40E941F02F4
:101CF0000F900F90CF91DF911F910F91FF90DF9088
:101D0000CF90BF90AF90089583E067E040E00E94DD
:101D1000410B1092D601089583E067E041E00E94F4
:101D2000410B81E08093D60108958091D6018823EC
:101D300019F40E948C0E08950E94840E089583E089
:101D400063E040E00E94BA0A83E063E041E00E9461
:101D5000410B81E060E00E94AA0981E062E00E94FC
:101D6000D40981E065E97EE00E94200A83E067E013
:101D700041E00E94BA0A83E067E040E00E94410B24
:101D80000E94B20A08950895DF93CF9300D0CDB793
:101D9000DEB70E94760C1A82198280E0BE016F5F66
:101DA0007F4F0E947E0C89819A81855F914020F04F
:101DB00083E067E041E003C083E067E040E00E9429
:101DC000410B0F900F90CF91DF910895EF92FF920A
:101DD0001F93182F82E067E040E00E94410B82E0F1
:101DE00066E040E00E94410B412F4295417080E047
:101DF00064E00E94410B412F42954695417080E07E
:101E000065E00E94410B412F4295469546954170F1
:101E100080E066E00E94410B412F441F4427441F8D
:101E200080E067E00E94410B82E065E041E00E94B3
:101E3000410B80EDE82E87E0F82EC7010197F1F7FE
:101E400082E065E040E00E94410BC7010197F1F795
:101E5000412F417080E064E00E94410B412F469584
:101E6000417080E065E00E94410B16951695412F68
:101E7000417080E066E00E94410B1695117080E091
:101E800067E0412F0E94410B82E065E041E00E9443
:101E9000410BC7010197F1F782E065E040E00E9445
:101EA000410B80EA9FE00197F1F71F91FF90EF90BF
:101EB0000895882319F0813009F4605C862F8058DA
:101EC0000E94E60E089581E00E94E60E80EA9FE0FF
:101ED0000197F1F7089580E991E028EC30E0F901ED
:101EE0003197F1F70197D9F783E30E94E60E82E379
:101EF0000E94E60E88E20E94E60E8CE00E94E60E4A
:101F000081E00E94E60E80EA9FE00197F1F786E00B
:101F10000E94E60E0895EF92FF921F93182F82E021
:101F200067E041E00E94410B82E066E040E00E94F1
:101F3000410B412F4295417080E064E00E94410BCB
:101F4000412F42954695417080E065E00E94410B2B
:101F5000412F429546954695417080E066E00E948B
:101F6000410B412F441F4427441F80E067E00E943B
:101F7000410B82E065E041E00E94410B90EDE92ECB
:101F800097E0F92EC7010197F1F782E065E040E0A4
:101F90000E94410BC7010197F1F7412F417080E08A
:101FA00064E00E94410B412F4695417080E065E05E
:101FB0000E94410B16951695412F417080E066E016
:101FC0000E94410B1695117080E067E0412F0E943E
:101FD000410B82E065E041E00E94410BC70101979F
:101FE000F1F782E065E040E00E94410B80EA9FE06B
:101FF0000197F1F71F91FF90EF900895DF92EF9214
:10200000FF920F931F93CF93DF93F82E8B01E42E53
:10201000D22E880F880F880F805C0E94E60EC0E0E9
:10202000D0E0F801EC0FFD1F80810E948B0F2196FC
:10203000C830D105B1F78E2D6D2D0E94590F8F2D0F
:102040000E948B0FDF91CF911F910F91FF90EF9026
:10205000DF900895CF93DF93EC0103C00E948B0FB4
:10206000219688818823D1F7DF91CF9108954F92EF
:102070005F927F928F929F92AF92BF92CF92DF92A8
:10208000EF92FF920F931F93DF93CF930F92CDB7F1
:10209000DEB777247A94CC24DD244E010894811C89
:1020A000911C90E4492E9CE9592EF601EA54FE4F0A
:1020B000A08081E06A2D40E00E94410B03EB11E01B
:1020C00089EBE82E81E0F82EEC0CFD1CF801B080C5
:1020D00081E06B2DA4010E94C00B89818823B1F49B
:1020E00081E06B2DA4010E94C00BC2010197F1F7A2
:1020F0008981882359F4F701708005C081E06B2D38
:10210000A4010E94C00B89818823C1F30F5F1F4F78
:1021100083E090E0E80EF91E91E0063B1907B1F666
:1021200081E06A2D41E00E94410B0894C11CD11C42
:10213000E3E0CE16D10409F0B8CF872D0F90CF91F0
:10214000DF911F910F91FF90EF90DF90CF90BF90A4
:10215000AF909F908F907F905F904F90089581E017
:1021600065E041E00E94BA0A81E066E041E00E9439
:10217000BA0A81E067E041E00E94BA0A81E065E0C6
:1021800041E00E94410B81E066E041E00E94410B8A
:1021900081E067E041E00E94410B81E060E040E0C7
:1021A0000E94BA0A81E061E040E00E94BA0A81E040
:1021B00064E040E00E94BA0A81E063E040E00E94EF
:1021C000BA0A81E060E041E00E94410B81E061E0F9
:1021D00041E00E94410B81E064E041E00E94410B3C
:1021E00081E063E041E00E94410B08951F93182FA6
:1021F000813071F0813030F0823061F0833061F0F5
:1022000080E010C08FEF0E9406091092D70109C02C
:1022100082EB03C080E801C080E00E9406091093B1
:10222000D70181E01F9108958FEF0E94060908955C
:102230008091D701813061F0813028F0823069F0DF
:102240008330B9F411C082EB0E94060981E009C015
:1022500080E80E94060982E004C080E00E9406092E
:1022600083E08093D70108958FEF0E9406091092B2
:10227000D701089581E063E041E00E94BA0A81E05D
:1022800063E040E00E94410B83E062E040E00E9496
:10229000BA0A83E062E041E00E94410B0E94F70825
:1022A00081E00E941C0980E060E00E94AA0980E0B1
:1022B00062E00E94D40980E068E171E10E94200A96
:1022C0000E94B20A0895482F74EA64E854E920EDA8
:1022D00037E076BF06B607FEFDCF43B966BF06B648
:1022E00007FEFDCF81B1887F883119F484E986BF6C
:1022F000089556BFC9010197F1F7EBCF80E280B98D
:1023000011B80895282F906A84EA86BF06B607FEA2
:10231000FDCF93B984E886BF06B607FEFDCF23B98B
:1023200084E886BF06B607FEFDCF63B984E886BFA2
:1023300006B607FEFDCF84E986BF892F0E94631190
:1023400008950F931F938C01106A812F0E946311CF
:1023500084EA86BF06B607FEFDCF13B984E886BFC0
:1023600006B607FEFDCF03B984E886BF06B607FEB2
:10237000FDCF84EA86BF06B607FEFDCF116013B914
:1023800084E886BF06B607FEFDCF84E886BF06B6A2
:1023900007FEFDCF83B194E996BF1F910F91089579
:1023A000EF92FF920F931F93CF93DF93082FF62E98
:1023B000E72EEA01192F106A812F0E94631184EA27
:1023C00086BF06B607FEFDCF13B984E886BF06B602
:1023D00007FEFDCF03B984E886BF06B607FEFDCF32
:1023E00084EA86BF06B607FEFDCF116013B984E804
:1023F00086BF06B607FEFDCF8F2D9E2D9C01F901ED
:1024000020E030E0AE014150504064E894EC11C04F
:102410002417350728F496BF06B607FEFDCF04C083
:1024200066BF06B607FEFDCF83B180832F5F3F4FA7
:1024300031962C173D0760F384E986BFDF91CF9179
:102440001F910F91FF90EF9008959BBD8ABD089555
:10245000853B70F4882319F488EE93E004C08A3534
:1024600029F48CED95E09BBD8ABD0895843B21F451
:1024700080ED97E09BBD8ABD089584EB0E942812F1
:10248000089580E00E94281208958091A80191E0AB
:1024900089278093A8018091A801882319F40E94BC
:1024A0003D1208958091A801813011F40E944112DB
:1024B00008950E94A6080E94140C81E062E040E0AA
:1024C0000E94BA0A81E062E041E00E94410B83E091
:1024D00065E041E00E94BA0A83E065E040E00E94C6
:1024E000410B82E060E00E94AA0982E062E00E9463
:1024F000D40982E065E472E10E94200A0E94B20AD7
:1025000008958BB391E089278BBB0895EF92FF92DA
:102510000F931F93CF93DF937C01C0E0D0E000E2E4
:102520001EE45DC080E060E040E00E94410B80E07E
:1025300061E040E00E94410B80E062E040E00E94E8
:10254000410B80E063E041E00E94410BC80101972C
:10255000F1F780E060E040E00E94410B80E061E044
:1025600040E00E94410B80E062E041E00E94410BAC
:1025700080E063E040E00E94410BC8010197F1F761
:1025800080E060E040E00E94410B80E061E041E0DB
:102590000E94410B80E062E040E00E94410B80E03D
:1025A00063E040E00E94410BC8010197F1F780E031
:1025B00060E041E00E94410B80E061E040E00E9469
:1025C000410B80E062E040E00E94410B80E063E06C
:1025D00040E00E94410BC8010197F1F72196CE150A
:1025E000DF0508F49FCFDF91CF911F910F91FF90EE
:1025F000EF900895EF92FF920F931F93CF93DF9385
:102600007C01C0E0D0E000E21EE45DC080E060E05C
:1026100041E00E94410B80E061E040E00E94410BFC
:1026200080E062E040E00E94410B80E063E040E037
:102630000E94410BC8010197F1F780E060E040E0A3
:102640000E94410B80E061E041E00E94410B80E08C
:1026500062E040E00E94410B80E063E040E00E94C5
:10266000410BC8010197F1F780E060E040E00E9473
:10267000410B80E061E040E00E94410B80E062E0BD
:1026800041E00E94410B80E063E040E00E94410B8A
:10269000C8010197F1F780E060E040E00E94410B43
:1026A00080E061E040E00E94410B80E062E040E0B9
:1026B0000E94410B80E063E041E00E94410BC801B1
:1026C0000197F1F72196CE15DF0508F49FCFDF9132
:1026D000CF911F910F91FF90EF900895089580E0A2
:1026E00063E040E00E94410B089580E063E041E038
:1026F0000E94410B089580E063E041E00E94BA0A25
:1027000008950E94820708950F931F93CF93DF933C
:10271000EC0100E41CE906C00E9475072196C8017F
:102720000197F1F788818823B9F7DF91CF911F9145
:102730000F9108950E94750708950E94F407089567
:102740006F927F928F929F92AF92BF92DF92EF92A1
:10275000FF920F931F93DF93CF93CDB7DEB72A97E6
:102760000FB6F894DEBF0FBECDBF80E090E0BE0193
:102770006F5F7F4F45E050E00E94D0118D818093C4
:10278000D80183E067E040E00E94410B0E94630FA4
:1027900080EA9FE00197F1F780E061E00E94590F25
:1027A00080E690E00E942A10DD2426E0622E712C43
:1027B0006C0E7D1E9AE0892E912C8C0E9D1E80EA57
:1027C000A82E8FE0B82E62C00E943710F82E8FEF2F
:1027D000F816D1F3EE2031F40E94630F80E063E03D
:1027E0000E94590FF801F1928F018AE20E948B0F2B
:1027F000EE24E3940815190539F79E81898198170D
:10280000E1F49F818A819817C1F498858B8198178C
:10281000A1F499858C81981781F40E94630F80EA56
:102820009FE00197F1F78FE690E00E942A100E9446
:1028300059120E943D1281E02EC00E94630FC50113
:102840000197F1F78CE790E00E942A1081E063E0A5
:102850000E94590FF2E0DF1649F086E890E00E94EE
:102860002A10D39483E0D81689F413C083E990E04A
:102870000E942A100E9475138FEF9FEF28EC30E022
:10288000F9013197F1F70197D9F704C08301EE24DC
:102890009BCF01C080E02A960FB6F894DEBF0FBE32
:1028A000CDBFCF91DF911F910F91FF90EF90DF90FF
:1028B000BF90AF909F908F907F906F90089583E02E
:1028C00067E041E00E94410B80E197E228EC30E0B4
:1028D000F9013197F1F70197D9F70E94140C0E9482
:1028E0007E110E946B0F0E94AF100E943A110E944D
:1028F00014110E949F0E0E949D130E947B13089545
:10290000CF92DF92EF92FF920F931F93DF93CF93BB
:102910000F92CDB7DEB70E945F140E94A0130E94F1
:102920003D120E94141188ECC82ED12C7E0108940F
:10293000E11CF11C00EA1FE00E942B0D8823E1F34B
:102940000E94751380E395E7F6013197F1F701973F
:10295000D9F70E946F1384E090E0B70141E050E0A6
:102960000E94D01169816F5F698384E090E00E94CA
:1029700082110E94630FC8010197F1F78981805D80
:102980000E948B0FD9CF629FD001739FF001829F6D
:10299000E00DF11D649FE00DF11D929FF00D839FEE
:1029A000F00D749FF00D659FF00D9927729FB00D8B
:1029B000E11DF91F639FB00DE11DF91FBD01CF019E
:1029C0001124089597FB092E07260AD077FD04D01D
:1029D0002ED006D000201AF4709561957F4F08958F
:1029E000F6F7909581959F4F0895A1E21A2EAA1BA4
:1029F000BB1BFD010DC0AA1FBB1FEE1FFF1FA217AF
:102A0000B307E407F50720F0A21BB30BE40BF50BAB
:102A1000661F771F881F991F1A9469F76095709534
:102A2000809590959B01AC01BD01CF010895AA1B33
:102A3000BB1B51E107C0AA1FBB1FA617B70710F0A9
:102A4000A61BB70B881F991F5A95A9F780959095DB
:102A5000BC01CD0108952F923F924F925F926F92E9
:102A60007F928F929F92AF92BF92CF92DF92EF921E
:102A7000FF920F931F93CF93DF93CDB7DEB7CA1B9F
:102A8000DB0B0FB6F894DEBF0FBECDBF09942A88CA
:102A9000398848885F846E847D848C849B84AA8472
:102AA000B984C884DF80EE80FD800C811B81AA81FF
:102AB000B981CE0FD11D0FB6F894DEBF0FBECDBFCA
:082AC000ED010895F894FFCF29
:102AC800456E7465722050617373776F726400434A
:102AD8006F7272656374205061737300202057729F
:102AE8006F6E6721210054727920416761696E20F9
:102AF8003A20005761726E696E672121212100001A
:102B080000000000000000000102020303030304A8
:102B18000404040404040405050505050505050564
:102B28000505050505050506060606060606060644
:102B3800060606060606060606060606060606062D
:102B48000606060606060607070707070707070714
:102B580007070707070707070707070707070707FD
:102B680007070707070707070707070707070707ED
:102B780007070707070707070707070707070707DD
:102B880007070707070707080808080808080808C4
:102B980008080808080808080808080808080808AD
:102BA800080808080808080808080808080808089D
:102BB800080808080808080808080808080808088D
:102BC800080808080808080808080808080808087D
:102BD800080808080808080808080808080808086D
:102BE800080808080808080808080808080808085D
:102BF800080808080808080808080808080808084D
:102C0800080808080808080101C0F9A4B0999282C8
:102C1800F880900001040506070102030405060771
:022C2800080999
:00000001FF
