:100000000C942A000C94A20E0C94750E0C94480EBD
:100010000C9447000C9447000C9447000C94470044
:100020000C9447000C9447000C94F80A0C94560B5F
:100030000C9447000C9447000C9447000C94470024
:100040000C9447000C9447000C9447000C94470014
:100050000C94470011241FBECFE5D8E0DEBFCDBF12
:1000600011E0A0E6B0E0E0E0F1E302C005900D92FF
:10007000A83DB107D9F711E0A8EDB1E001C01D928C
:10008000A53EB107E1F70E94D9170C947E180C9495
:100090000000A0E2B0E0EFE4F0E00C9447186983C0
:1000A0007A838B839C832D833E834F835887CE0135
:1000B0000196BE01675F7F4F0E948C03CE010596BB
:1000C000BE016F5E7F4F0E948C039985923088F04D
:1000D00089898230C8F0943019F4823051F404C018
:1000E000843029F4923081F480E690E0C6C09230EA
:1000F00049F420E09A858A89981321E02A87CE0165
:100100000996BBC0823049F420E09A858A89981309
:1001100021E02A8BCE014196B0C02D843E844F84CD
:1001200058886D887E888F88988CEE24FF248701FC
:10013000AA24BB24650140E050E060E070E0E0E00C
:10014000F0E0C10181709070892BE9F0E60CF71C9A
:10015000081D191D9A01AB012A0D3B1D4C1D5D1D8B
:1001600080E090E0A0E0B0E0E614F704080519058F
:1001700020F481E090E0A0E0B0E0BA01A901480FCE
:10018000591F6A1F7B1FAA0CBB1CCC1CDD1C97FED1
:1001900008C081E090E0A0E0B0E0A82AB92ACA2A0D
:1001A000DB2A3196E032F10549F0660C771C881C99
:1001B000991C5694479437942794C3CFFA85EA89BB
:1001C0002B893C898B859C85280F391F2E5F3F4FDB
:1001D00017C0CA0181709070892B61F01695079540
:1001E000F794E79480E090E0A0E0B0E8E82AF92AEC
:1001F0000A2B1B2B76956795579547952F5F3F4F99
:1002000077FDE7CF0CC0440F551F661F771F17FD02
:100210004160EE0CFF1C001F111F21503040403088
:1002200090E0590790E0690790E4790760F32B8F1D
:100230003C8FDB01CA018F779070A070B070803462
:100240009105A105B10561F447FD0AC0E114F1046F
:100250000105110529F0405C5F4F6F4F7F4F4078DB
:100260001A8EFE1711F081E08A8F4D8F5E8F6F8F8F
:1002700078A383E0898FCE0149960E94B702A096A9
:10028000E2E10C946318A8E1B0E0E9E4F1E00C9439
:100290004F1869837A838B839C832D833E834F839E
:1002A0005887B9E0EB2EF12CEC0EFD1ECE01019625
:1002B000B7010E948C038E010F5E1F4FCE01059681
:1002C000B8010E948C032985223008F47EC0398948
:1002D000323010F4B8017CC08A859A8989278A87D0
:1002E000243011F0223031F4231709F06EC060E69B
:1002F00070E06EC0343039F41D861E861F86188A61
:100300001C861B8604C0323021F484E08987B70143
:100310005FC02B853C858B899C89281B390B3C87CA
:100320002B87ED84FE840F851889AD88BE88CF8821
:10033000D88CEA14FB040C051D0540F4EE0CFF1CE0
:10034000001F111F215030403C872B8720E030E0F8
:1003500040E050E080E090E0A0E0B0E460E070E0D9
:10036000EA14FB040C051D0540F0282B392B4A2B01
:100370005B2BEA18FB080C091D09B695A795979504
:100380008795EE0CFF1C001F111F6F5F7F4F6F31B1
:10039000710531F7DA01C9018F779070A070B070E4
:1003A00080349105A105B10561F427FD0AC0E1146F
:1003B000F1040105110529F0205C3F4F4F4F5F4FBD
:1003C00020782D873E874F87588BBE01675F7F4F10
:1003D000CB010E94B7026896EAE00C946B18A8E083
:1003E000B0E0E5EFF1E00C944F187B018C01611552
:1003F00071058105910519F482E0898360C083E06D
:1004000089838EE1C82ED12CDC82CB82ED82FE82E4
:100410000F831887C801B7010E946802FC01319759
:10042000F7FF3BC0222733272E1B3F0B57016801E4
:10043000022E04C0D694C794B794A7940A94D2F716
:1004400040E050E060E070E081E090E0A0E0B0E0EB
:1004500004C0880F991FAA1FBB1F2A95D2F70197C6
:10046000A109B1098E219F21A023B1230097A105E5
:10047000B10521F041E050E060E070E04A295B29DD
:100480006C297D294D835E836F8378878EE190E0B0
:100490008E1B9F0B9C838B8312C0309781F00E2E96
:1004A00004C0EE0CFF1C001F111F0A94D2F7ED824E
:1004B000FE820F831887CE1ADF0ADC82CB821A8273
:1004C000CE0101960E94B7022896EAE00C946B18C0
:1004D000EF92FF920F931F937B018C0180E0E8164F
:1004E00080E0F80681E0080780E0180788F48FEFC5
:1004F000E816F1040105110531F028F088E090E0DC
:10050000A0E0B0E017C080E090E0A0E0B0E012C052
:1005100080E0E81680E0F80680E0080781E0180730
:1005200028F088E190E0A0E0B0E004C080E190E035
:10053000A0E0B0E020E230E040E050E0281B390BC2
:100540004A0B5B0B04C016950795F794E7948A95C0
:10055000D2F7F701E859FF4F8081281B3109410983
:100560005109C9011F910F91FF90EF900895DF92FB
:10057000EF92FF920F931F93FC01E480F5800681B8
:100580001781D1808081823048F480E090E0A0E142
:10059000B0E0E82AF92A0A2B1B2BA5C0843009F405
:1005A0009FC0823021F4EE24FF24870105C0E114AE
:1005B000F1040105110519F4E0E0F0E096C0628154
:1005C00073819FEF623879070CF05BC022E83FEF40
:1005D000261B370B2A3131052CF020E030E040E0BB
:1005E00050E02AC0B801A701022E04C07695679595
:1005F000579547950A94D2F781E090E0A0E0B0E0EB
:1006000004C0880F991FAA1FBB1F2A95D2F7019714
:10061000A109B1098E219F21A023B1230097A10533
:10062000B10521F081E090E0A0E0B0E09A01AB01DB
:10063000282B392B4A2B5B2BDA01C9018F7790705D
:10064000A070B07080349105A105B10539F427FF81
:1006500009C0205C3F4F4F4F5F4F04C0215C3F4FAC
:100660004F4F5F4FE0E0F0E02030A0E03A07A0E01D
:100670004A07A0E45A0710F0E1E0F0E079018A01AE
:1006800027C06038710564F5FB01E158FF4FD801C0
:10069000C7018F779070A070B07080349105A1056C
:1006A000B10539F4E7FE0DC080E490E0A0E0B0E0D1
:1006B00004C08FE390E0A0E0B0E0E80EF91E0A1F4E
:1006C0001B1F17FF05C016950795F794E794319601
:1006D00087E016950795F794E7948A95D1F705C0BA
:1006E000EE24FF248701EFEFF0E06E2F6795662779
:1006F0006795902F9F77D794DD24D7948E2F86957A
:10070000492F462B582F5D29B701CA011F910F9120
:10071000FF90EF90DF900895FC01DB014081518153
:100720002281622F6F7770E0221F2227221F938180
:10073000892F880F822B282F30E0991F9927991F26
:1007400011969C93119721153105A9F54115510575
:100750006105710511F482E037C082E89FEF1396BE
:100760009C938E9312979A01AB0167E0220F331F7F
:10077000441F551F6A95D1F783E08C930DC0220F5B
:10078000331F441F551F12968D919C91139701970B
:1007900013969C938E931297203080E0380780E068
:1007A000480780E4580758F314962D933D934D93D2
:1007B0005C93179708952F3F310579F44115510542
:1007C0006105710519F484E08C93089564FF03C0FA
:1007D00081E08C9312C01C9210C02F5730401396AA
:1007E0003C932E93129783E08C9387E0440F551F20
:1007F000661F771F8A95D1F7706414964D935D93A9
:100800006D937C9317970895DF93CF93CDB7DEB7A1
:10081000A1E4B0E0E1E4F0E0808184608C93A1E4A5
:10082000B0E0E1E4F0E0808182608C93A1E4B0E08C
:10083000E1E4F0E080818E7F8C93CF91DF91089589
:10084000DF93CF93CDB7DEB7A1E4B0E0E1E4F0E011
:10085000808188608C93CF91DF910895DF93CF934F
:10086000CDB7DEB7A1E4B0E0E1E4F0E080818861DB
:100870008C93A1E4B0E0E1E4F0E08081877F8C9389
:10088000CF91DF910895DF93CF93CDB7DEB7A895D1
:10089000CF91DF910895DF93CF93CDB7DEB7ABE271
:1008A000B0E0EBE2F0E080818D7F8C93E0E4F0E05B
:1008B0001082E9E2F0E083E38083AAE2B0E0EAE2BA
:1008C000F0E080818B7F8C93E0E4F0E086E8808329
:1008D000AAE2B0E0EAE2F0E0808180618C93AAE2D3
:1008E000B0E0EAE2F0E0808188608C93CF91DF9104
:1008F0000895DF93CF930F92CDB7DEB78983EBE2F4
:10090000F0E08081829586958770882F90E08170D5
:1009100090700097A1F3ECE2F0E089818083EBE234
:10092000F0E080818295869586958370882F90E08F
:1009300081709070009799F3ABE2B0E0EBE2F0E0E9
:10094000808180648C930F90CF91DF910895DF9325
:10095000CF9300D0CDB7DEB79A83898389819A81FE
:10096000009759F0EBE2F0E080818823DCF7ECE2BD
:10097000F0E08081E981FA8180830F900F90CF9120
:10098000DF910895DF93CF9300D0CDB7DEB79A8380
:1009900089830AC0E981FA8180810E947904898172
:1009A0009A8101969A838983E981FA8180818823DB
:1009B00089F70F900F90CF91DF910895DF93CF9338
:1009C000CDB7DEB78DE00E9479048AE00E947904F9
:1009D000CF91DF910895DF93CF93CDB7DEB7EBE2F0
:1009E000F0E08081881F8827881FCF91DF910895CC
:1009F000DF93CF930F92CDB7DEB78983A6E5B0E042
:100A0000E6E5F0E0808180648C93E0E2F0E082E053
:100A10008083A1E2B0E0E1E2F0E0808181608C932C
:100A2000A1E2B0E0E1E2F0E0808182608C93898114
:100A3000882329F0E2E2F0E08981880F8083A6E52F
:100A4000B0E0E6E5F0E0808184608C930F90CF9178
:100A5000DF910895DF93CF930F92CDB7DEB78983EF
:100A6000E2E2F0E08981880F8083A6E5B0E0E6E568
:100A7000F0E0808180648C93A6E5B0E0E6E5F0E0EC
:100A8000808184608C930F90CF91DF910895DF93E4
:100A9000CF930F92CDB7DEB71982A6E5B0E0E6E5B9
:100AA000F0E0808180628C93A6E5B0E0E6E5F0E0BE
:100AB000808180688C93E6E5F0E080818823DCF714
:100AC000E1E2F0E08081882F90E0887F90708830AC
:100AD000910511F081E0898389810F90CF91DF9199
:100AE0000895DF93CF930F92CDB7DEB71982A6E5B5
:100AF000B0E0E6E5F0E08081846A8C93E6E5F0E022
:100B000080818823DCF7E1E2F0E08081882F90E0AB
:100B1000887F90708031910511F082E0898389810E
:100B20000F90CF91DF910895DF93CF9300D00F9274
:100B3000CDB7DEB78B831A821982E3E2F0E08B81B6
:100B4000880F8083A3E2B0E0E3E2F0E080818E7F53
:100B50008C93A6E5B0E0E6E5F0E080818F7D8C9394
:100B6000A6E5B0E0E6E5F0E0808180688C93E6E5FC
:100B7000F0E080818823DCF7E1E2F0E08081882FDB
:100B800090E0887F90708831910511F083E08A832E
:100B90008A810F900F900F90CF91DF910895DF938E
:100BA000CF9300D0CDB7DEB78A831982E3E2F0E0BD
:100BB0008A81880F8083A3E2B0E0E3E2F0E08081E5
:100BC00081608C93A6E5B0E0E6E5F0E080818F7D62
:100BD0008C93A6E5B0E0E6E5F0E0808180688C9338
:100BE000E6E5F0E080818823DCF7E1E2F0E0808157
:100BF000882F90E0887F90708034910511F084E018
:100C0000898389810F900F90CF91DF910895DF93B1
:100C1000CF9300D0CDB7DEB78A831982E3E2F0E04C
:100C20008A818083A6E5B0E0E6E5F0E08081806817
:100C30008C93E6E5F0E080818823DCF7E1E2F0E0E8
:100C40008081882F90E0887F90708832910511F024
:100C500085E0898389810F900F90CF91DF9108956E
:100C6000DF93CF9300D00F92CDB7DEB79B838A83FB
:100C70001982A6E5B0E0E6E5F0E0808180688C931B
:100C8000E6E5F0E080818823DCF7E1E2F0E08081B6
:100C9000882F90E0887F90708035910519F086E06C
:100CA000898306C0E3E2F0E08081EA81FB818083F2
:100CB00089810F900F900F90CF91DF910895DF936E
:100CC000CF9300D00F92CDB7DEB79B838A83198272
:100CD000A6E5B0E0E6E5F0E080818F7B8C93A6E5A9
:100CE000B0E0E6E5F0E0808180688C93E6E5F0E036
:100CF00080818823DCF7A6E5B0E0E6E5F0E08081BE
:100D000080648C93E1E2F0E08081882F90E0887F1E
:100D100090708835910519F087E0898306C0E3E279
:100D2000F0E08081EA81FB81808389810F900F90C0
:100D30000F90CF91DF910895DF93CF93CDB7DEB7BA
:100D4000A6E5B0E0E6E5F0E0808180618C93A6E561
:100D5000B0E0E6E5F0E0808180688C93CF91DF9190
:100D60000895DF93CF9300D000D0CDB7DEB789834D
:100D70006A8389818823E1F4AFE4B0E0EFE4F0E036
:100D800080818E7F8C93AFE4B0E0EFE4F0E080816F
:100D90008D7F8C93AEE4B0E0EEE4F0E08081877F5D
:100DA0008C93AEE4B0E0EEE4F0E080818F7E8C9333
:100DB0008A81282F30E03C832B838B819C81833078
:100DC000910509F470C02B813C812430310584F4F5
:100DD0008B819C8181309105D1F12B813C81223026
:100DE00031050CF04AC08B819C810097D1F0C8C0BE
:100DF0002B813C812530310509F481C08B819C8198
:100E0000853091050CF465C02B813C81263031057D
:100E100009F48BC08B819C818730910509F49BC0BC
:100E2000AFC0AEE4B0E0EEE4F0E080818E7F8C9362
:100E3000AEE4B0E0EEE4F0E080818D7F8C93AEE430
:100E4000B0E0EEE4F0E080818B7F8C9399C0AEE45B
:100E5000B0E0EEE4F0E0808181608C93AEE4B0E03D
:100E6000EEE4F0E080818D7F8C93AEE4B0E0EEE4C0
:100E7000F0E080818B7F8C9383C0AEE4B0E0EEE441
:100E8000F0E080818E7F8C93AEE4B0E0EEE4F0E0A1
:100E9000808182608C93AEE4B0E0EEE4F0E080818B
:100EA0008B7F8C936DC0AEE4B0E0EEE4F0E0808127
:100EB00081608C93AEE4B0E0EEE4F0E0808182608B
:100EC0008C93AEE4B0E0EEE4F0E080818B7F8C9315
:100ED00057C0AEE4B0E0EEE4F0E080818E7F8C930A
:100EE000AEE4B0E0EEE4F0E080818D7F8C93AEE480
:100EF000B0E0EEE4F0E0808184608C9341C0AEE429
:100F0000B0E0EEE4F0E0808181608C93AEE4B0E08C
:100F1000EEE4F0E080818D7F8C93AEE4B0E0EEE40F
:100F2000F0E0808184608C932BC0AEE4B0E0EEE40E
:100F3000F0E080818E7F8C93AEE4B0E0EEE4F0E0F0
:100F4000808182608C93AEE4B0E0EEE4F0E08081DA
:100F500084608C9315C0AEE4B0E0EEE4F0E08081F4
:100F600081608C93AEE4B0E0EEE4F0E080818260DA
:100F70008C93AEE4B0E0EEE4F0E0808184608C938A
:100F80000F900F900F900F90CF91DF910895DF9306
:100F9000CF9300D0CDB7DEB71A821982ECE4F0E02F
:100FA0008081282F30E089819A81822B932B9A832C
:100FB0008983EDE4F0E08081882F90E0382F2227AC
:100FC00089819A81822B932B9A83898389819A8143
:100FD0000F900F90CF91DF910895DF93CF9300D0C2
:100FE000CDB7DEB79A838983ECE4F0E01082EDE4BC
:100FF000F0E089819A81892F992780830F900F9043
:10100000CF91DF910895DF93CF9300D000D0CDB77B
:10101000DEB71C821B82E6E4F0E080818A83E7E48D
:10102000F0E0808189838981882F90E0382F222702
:101030008A81882F90E0822B932B9C838B838B81DA
:101040009C810F900F900F900F90CF91DF9108959A
:10105000DF93CF93CDB7DEB7A9E5B0E0E9E5F0E0E7
:10106000808180628C93A8E5B0E0E8E5F0E08081C3
:1010700080628C93CF91DF910895DF93CF9300D05E
:101080000F92CDB7DEB789838981282F30E03B836B
:101090002A838A819B818830910531F02A813B81A6
:1010A0002930310549F00FC0AEE4B0E0EEE4F0E0E5
:1010B00080818F7B8C9307C0AEE4B0E0EEE4F0E07B
:1010C000808180648C930F900F900F90CF91DF916F
:1010D0000895DF93CF9300D000D000D0CDB7DEB716
:1010E00089836A838981282F30E03E832D838D8117
:1010F0009E818130910521F12D813E812230310583
:101100002CF48D819E81009761F046C02D813E8137
:101110002230310521F18D819E818330910571F15D
:101120003BC0A3E5B0E0E3E5F0E080818F7B8C93EA
:10113000A3E5B0E0E3E5F0E08081877F8C932CC0ED
:10114000A3E5B0E0E3E5F0E0808180648C93A3E563
:10115000B0E0E3E5F0E08081877F8C931DC0A3E5DC
:10116000B0E0E3E5F0E080818F7B8C93A3E5B0E015
:10117000E3E5F0E0808188608C930EC0A3E5B0E0E9
:10118000E3E5F0E0808180648C93A3E5B0E0E3E5E3
:10119000F0E0808188608C938A81282F30E03C8346
:1011A0002B838B819C818330910509F470C02B8146
:1011B0003C812430310584F48B819C818130910500
:1011C000D1F12B813C81223031050CF04AC08B815A
:1011D0009C810097D1F0C8C02B813C81253031051E
:1011E00009F481C08B819C81853091050CF465C028
:1011F0002B813C812630310509F48BC08B819C8189
:101200008730910509F49BC0AFC0A3E5B0E0E3E5EA
:10121000F0E080818E7F8C93A3E5B0E0E3E5F0E021
:1012200080818D7F8C93A3E5B0E0E3E5F0E08081E1
:101230008B7F8C9399C0A3E5B0E0E3E5F0E080817B
:1012400081608C93A3E5B0E0E3E5F0E080818D7FE1
:101250008C93A3E5B0E0E3E5F0E080818B7F8C9395
:1012600083C0A3E5B0E0E3E5F0E080818E7F8C935E
:10127000A3E5B0E0E3E5F0E0808182608C93A3E534
:10128000B0E0E3E5F0E080818B7F8C936DC0A3E557
:10129000B0E0E3E5F0E0808181608C93A3E5B0E00D
:1012A000E3E5F0E0808182608C93A3E5B0E0E3E5C4
:1012B000F0E080818B7F8C9357C0A3E5B0E0E3E53D
:1012C000F0E080818E7F8C93A3E5B0E0E3E5F0E071
:1012D00080818D7F8C93A3E5B0E0E3E5F0E0808131
:1012E00084608C9341C0A3E5B0E0E3E5F0E0808149
:1012F00081608C93A3E5B0E0E3E5F0E080818D7F31
:101300008C93A3E5B0E0E3E5F0E0808184608C930A
:101310002BC0A3E5B0E0E3E5F0E080818E7F8C9305
:10132000A3E5B0E0E3E5F0E0808182608C93A3E583
:10133000B0E0E3E5F0E0808184608C9315C0A3E524
:10134000B0E0E3E5F0E0808181608C93A3E5B0E05C
:10135000E3E5F0E0808182608C93A3E5B0E0E3E513
:10136000F0E0808184608C9326960FB6F894DEBFFF
:101370000FBECDBFCF91DF910895DF93CF93CDB74F
:10138000DEB728970FB6F894DEBF0FBECDBF8983B6
:101390006A838981282F30E038872F838F81988551
:1013A0008130910509F472C02F81388522303105D2
:1013B0002CF48F819885009769F0C3C02F81388500
:1013C0002230310539F08F8198858330910509F4F9
:1013D0005DC0B7C08A81282F30E03E832D838D8188
:1013E0009E818130910509F442C02D813E812230D9
:1013F00031052CF48D819E810097D9F0A2C02D81FA
:101400003E812230310521F18D819E81833091050D
:1014100009F097C0A3E5B0E0E3E5F0E080818F7EBE
:101420008C93A3E5B0E0E3E5F0E080818F7D8C93C1
:1014300088C0A3E5B0E0E3E5F0E0808180618C93B3
:10144000A3E5B0E0E3E5F0E080818F7D8C9379C087
:10145000A3E5B0E0E3E5F0E080818F7E8C93A3E527
:10146000B0E0E3E5F0E0808180628C936AC0A3E5A0
:10147000B0E0E3E5F0E0808180618C93A3E5B0E02B
:10148000E3E5F0E0808180628C935BC08A81282F45
:1014900030E03C832B838B819C8182309105A1F1CC
:1014A0002B813C812330310534F48B819C81813048
:1014B0009105C9F146C02B813C812330310531F0C3
:1014C0008B819C818430910581F03BC0A3E5B0E025
:1014D000E3E5F0E080818F7E8C93A3E5B0E0E3E567
:1014E000F0E080818F7D8C932CC0A3E5B0E0E3E534
:1014F000F0E0808180618C93A3E5B0E0E3E5F0E06B
:1015000080818F7D8C931DC0A3E5B0E0E3E5F0E022
:1015100080818F7E8C93A3E5B0E0E3E5F0E08081ED
:1015200080628C930EC0A3E5B0E0E3E5F0E080813B
:1015300080618C93A3E5B0E0E3E5F0E08081806218
:101540008C9328960FB6F894DEBF0FBECDBFCF9117
:10155000DF910895DF93CF9300D0CDB7DEB79A83A4
:10156000898389819A81009731F089819A8190934A
:10157000DD018093DC010F900F90CF91DF910895F2
:10158000DF93CF93CDB7DEB7A9E5B0E0E9E5F0E0B2
:10159000808182608C93A9E5B0E0E9E5F0E080818C
:1015A00081608C93CF91DF910895DF93CF93CDB776
:1015B000DEB7A9E5B0E0E9E5F0E080818D7F8C93AE
:1015C000A9E5B0E0E9E5F0E080818E7F8C93CF91D2
:1015D000DF910895DF93CF930F92CDB7DEB7898364
:1015E000ECE5F0E0898180830F90CF91DF91089541
:1015F0001F920F920FB60F9211242F933F934F9388
:101600005F936F937F938F939F93AF93BF93EF936A
:10161000FF93DF93CF93CDB7DEB78091D801909140
:10162000D901A091DA01B091DB010196A11DB11D94
:101630008093D8019093D901A093DA01B093DB0194
:101640008091D8019091D901A091DA01B091DB018C
:10165000883E23E0920720E0A20720E0B20799F439
:101660008091DC019091DD01009729F0E091DC018F
:10167000F091DD0109951092D8011092D9011092D4
:10168000DA011092DB01CF91DF91FF91EF91BF91D1
:10169000AF919F918F917F916F915F914F913F910A
:1016A0002F910F900FBE0F901F9018951F920F92C1
:1016B0000FB60F921124DF93CF93CDB7DEB7CF9142
:1016C000DF910F900FBE0F901F901895DF93CF936F
:1016D000CDB7DEB728970FB6F894DEBF0FBECDBFEB
:1016E0006D837E838F8398878091D8019091D901F3
:1016F000A091DA01B091DB0189839A83AB83BC832B
:101700002091D8013091D9014091DA015091DB014B
:1017100089819A81AB81BC81281B390B4A0B5B0BF9
:101720008D819E81AF81B885281739074A075B07ED
:1017300038F328960FB6F894DEBF0FBECDBFCF9119
:10174000DF910895DF93CF9300D00F92CDB7DEB72E
:1017500089838981282F30E03B832A838A819B817A
:101760000097B1F12A813B812130310509F05FC03A
:10177000ADE2B0E0EDE2F0E0808180618C9381E049
:1017800064E041E00E94F50E81E065E041E00E94E6
:10179000F50E81E066E040E00E94F50E81E067E032
:1017A00041E00E94F50E81E064E040E00E941F10DD
:1017B00081E065E040E00E941F1081E066E041E0CA
:1017C0000E941F1081E067E040E00E941F102FC0C0
:1017D000ADE2B0E0EDE2F0E080818F7E8C9381E0BD
:1017E00064E040E00E94F50E81E065E040E00E9488
:1017F000F50E81E066E041E00E94F50E81E067E0D1
:1018000040E00E94F50E81E064E041E00E941F107C
:1018100081E065E041E00E941F1081E066E040E069
:101820000E941F1081E067E041E00E941F10ADE2BE
:10183000B0E0EDE2F0E0808180648C93ADE2B0E056
:10184000EDE2F0E0808180628C93ADE2B0E0EDE209
:10185000F0E08081877F8C93ADE2B0E0EDE2F0E0D4
:10186000808184608C93ADE2B0E0EDE2F0E08081B5
:1018700081608C93ADE2B0E0EDE2F0E080818D7F9D
:101880008C93AEE2B0E0EEE2F0E080818E7F8C934C
:101890000F900F900F90CF91DF910895DF93CF932A
:1018A0000F92CDB7DEB78983EFE2F0E089818083C4
:1018B000EEE2F0E080818823DCF7EFE2F0E0808167
:1018C0000F90CF91DF910895DF93CF93CDB7DEB71F
:1018D000EEE2F0E08081881F8827881FCF91DF919A
:1018E0000895DF93CF93CDB7DEB7EFE2F0E08081CC
:1018F000CF91DF910895DF93CF930F92CDB7DEB7ED
:101900008983EFE2F0E0898180830F90CF91DF91AE
:101910000895DF93CF93CDB7DEB7AFE5B0E0EFE545
:10192000F0E0808180688C93CF91DF910895DF9300
:10193000CF93CDB7DEB7AFE5B0E0EFE5F0E0808163
:1019400080688C93CF91DF910895DF93CF93CDB7CB
:10195000DEB7AFE5B0E0EFE5F0E080818F778C9304
:10196000CF91DF910895DF93CF93CDB7DEB72A975C
:101970000FB6F894DEBF0FBECDBF89836A8389811D
:10198000282F30E03A87298789859A85813091050B
:1019900009F46DC029853A852230310509F4C9C0A2
:1019A00089859A85009709F0EAC08A81282F30E05E
:1019B00038872F838F8198858130910599F12F8108
:1019C0003885223031052CF48F8198850097C9F134
:1019D00046C02F8138852230310531F08F819885BE
:1019E0008330910581F03BC0A5E5B0E0E5E5F0E08E
:1019F00080818E7F8C93A5E5B0E0E5E5F0E0808105
:101A000082608C932CC0A5E5B0E0E5E5F0E0808134
:101A100081608C93A5E5B0E0E5E5F0E0808182602F
:101A20008C931DC0A5E5B0E0E5E5F0E08081816024
:101A30008C93A5E5B0E0E5E5F0E080818D7F8C93A7
:101A40000EC0A5E5B0E0E5E5F0E080818E7F8C93E7
:101A5000A5E5B0E0E5E5F0E080818D7F8C93ABE516
:101A6000B0E0EBE5F0E0808180648C9388C08A81EF
:101A7000282F30E03E832D838D819E81813091051A
:101A800099F12D813E81223031052CF48D819E818A
:101A90000097C9F146C02D813E812230310531F0D9
:101AA0008D819E818330910581F03BC0A5E5B0E03A
:101AB000E5E5F0E080818B7F8C93A5E5B0E0E5E57E
:101AC000F0E0808188608C932CC0A5E5B0E0E5E56E
:101AD000F0E0808184608C93A5E5B0E0E5E5F0E07E
:101AE000808188608C931DC0A5E5B0E0E5E5F0E05D
:101AF000808184608C93A5E5B0E0E5E5F0E080812D
:101B0000877F8C930EC0A5E5B0E0E5E5F0E080812D
:101B10008B7F8C93A5E5B0E0E5E5F0E08081877FE1
:101B20008C93ABE5B0E0EBE5F0E0808180688C93CE
:101B300026C08A81282F30E03C832B838B819C81B7
:101B40008230910531F02B813C812330310549F001
:101B50000FC0A4E5B0E0E4E5F0E080818F7B8C93DA
:101B600007C0A4E5B0E0E4E5F0E0808180648C93F8
:101B7000ABE5B0E0EBE5F0E0808180628C932A96E3
:101B80000FB6F894DEBF0FBECDBFCF91DF910895A1
:101B9000DF93CF9300D00F92CDB7DEB789838981D1
:101BA000282F30E03B832A838A819B8181309105F5
:101BB00089F02A813B8122303105A1F08A819B8105
:101BC0000097B9F4ABE5B0E0EBE5F0E080818F7B06
:101BD0008C930FC0ABE5B0E0EBE5F0E080818F7750
:101BE0008C9307C0ABE5B0E0EBE5F0E080818F7D42
:101BF0008C930F900F900F90CF91DF910895DF930A
:101C0000CF9300D000D000D0CDB7DEB79A838983C0
:101C10006B8389819A81009781F18B81282F30E035
:101C20003E832D838D819E818130910591F02D81A0
:101C30003E8122303105B1F08D819E810097D9F42B
:101C400089819A819093DF018093DE0191E09C83EA
:101C500015C089819A819093E1018093E00121E090
:101C60002C830CC089819A819093E3018093E201D7
:101C700031E03C8303C01C8201C01C828C8126960B
:101C80000FB6F894DEBF0FBECDBFCF91DF910895A0
:101C90001F920F920FB60F9211242F933F934F93E1
:101CA0005F936F937F938F939F93AF93BF93EF93C4
:101CB000FF93DF93CF93CDB7DEB7E091E201F091D0
:101CC000E3010995CF91DF91FF91EF91BF91AF9122
:101CD0009F918F917F916F915F914F913F912F9144
:101CE0000F900FBE0F901F9018951F920F920FB676
:101CF0000F9211242F933F934F935F936F937F9392
:101D00008F939F93AF93BF93EF93FF93DF93CF9303
:101D1000CDB7DEB7E091E001F091E1010995CF91F7
:101D2000DF91FF91EF91BF91AF919F918F917F9143
:101D30006F915F914F913F912F910F900FBE0F9038
:101D40001F9018951F920F920FB60F9211242F9388
:101D50003F934F935F936F937F938F939F93AF9333
:101D6000BF93EF93FF93DF93CF93CDB7DEB7E091AF
:101D7000DE01F091DF010995CF91DF91FF91EF91A5
:101D8000BF91AF919F918F917F916F915F914F9193
:101D90003F912F910F900FBE0F901F901895DF93DA
:101DA000CF93CDB7DEB7EAE3F0E08FEF8083E7E3D0
:101DB000F0E08FEB8083E4E3F0E08FEF8083E1E3FA
:101DC000F0E08AE18083EBE3F0E088E08083E8E301
:101DD000F0E080E48083E5E3F0E01082E2E3F0E00D
:101DE00081E58083CF91DF910895DF93CF93CDB7C5
:101DF000DEB72E970FB6F894DEBF0FBECDBF8A8335
:101E00006B834C8381E089838A81843008F00CC124
:101E10008B81883008F008C18C81813021F08C8161
:101E2000882309F001C18A81282F30E03E872D8761
:101E30008D859E858130910509F44FC02D853E85A5
:101E4000223031052CF48D859E85009771F0EDC010
:101E50002D853E852230310509F477C08D859E851C
:101E60008330910509F4A9C0E0C08C81282F30E0AF
:101E70003C872B878B859C850097D1F02B853C85F3
:101E80002130310509F0D1C0AAE3B0E0EAE3F0E087
:101E90008081482F8B81282F30E081E090E0022E56
:101EA00002C0880F991F0A94E2F7842B8C93BDC05F
:101EB000AAE3B0E0EAE3F0E08081482F8B81282F8D
:101EC00030E081E090E0022E02C0880F991F0A9452
:101ED000E2F7809584238C93A8C08C81282F30E072
:101EE0003A87298789859A850097D1F029853A858F
:101EF0002130310509F099C0A7E3B0E0E7E3F0E055
:101F00008081482F8B81282F30E081E090E0022EE5
:101F100002C0880F991F0A94E2F7842B8C9385C026
:101F2000A7E3B0E0E7E3F0E08081482F8B81282F22
:101F300030E081E090E0022E02C0880F991F0A94E1
:101F4000E2F7809584238C9370C08C81282F30E039
:101F500038872F838F8198850097D1F02F8138851E
:101F60002130310509F061C0A4E3B0E0E4E3F0E022
:101F70008081482F8B81282F30E081E090E0022E75
:101F800002C0880F991F0A94E2F7842B8C934DC0EE
:101F9000A4E3B0E0E4E3F0E08081482F8B81282FB8
:101FA00030E081E090E0022E02C0880F991F0A9471
:101FB000E2F7809584238C9338C08C81282F30E001
:101FC0003E832D838D819E810097C9F02D813E81B6
:101FD0002130310551F5A1E3B0E0E1E3F0E080818B
:101FE000482F8B81282F30E081E090E0022E02C044
:101FF000880F991F0A94E2F7842B8C9316C0A1E3F3
:10200000B0E0E1E3F0E08081482F8B81282F30E0C1
:1020100081E090E0022E02C0880F991F0A94E2F737
:10202000809584238C9301C0198289812E960FB6E6
:10203000F894DEBF0FBECDBFCF91DF910895DF933F
:10204000CF93CDB7DEB72E970FB6F894DEBF0FBE95
:10205000CDBF8A836B834C8381E089838B818830F9
:1020600008F008C18A81282F30E03E872D878D85B2
:102070009E858130910509F450C02D853E85223022
:1020800031052CF48D859E85009771F0F1C02D856A
:102090003E852230310509F479C08D859E858330D7
:1020A000910509F4ACC0E4C08C81282F30E03C8756
:1020B0002B878B859C850097C9F02B853C8521302B
:1020C000310549F5ABE3B0E0EBE3F0E08081482F68
:1020D0008B81282F30E081E090E0022E02C0880F33
:1020E000991F0A94E2F7842B8C93C5C0ABE3B0E050
:1020F000EBE3F0E08081482F8B81282F30E081E0F6
:1021000090E0022E02C0880F991F0A94E2F7809592
:1021100084238C93B0C01982AEC08C81282F30E00C
:102120003A87298789859A850097C9F029853A8554
:102130002130310549F5A8E3B0E0E8E3F0E0808123
:10214000482F8B81282F30E081E090E0022E02C0E2
:10215000880F991F0A94E2F7842B8C938CC0A8E314
:10216000B0E0E8E3F0E08081482F8B81282F30E059
:1021700081E090E0022E02C0880F991F0A94E2F7D6
:10218000809584238C9377C0198275C08C81282F09
:1021900030E038872F838F8198850097C9F02F8191
:1021A00038852130310549F5A5E3B0E0E5E3F0E0FD
:1021B0008081482F8B81282F30E081E090E0022E33
:1021C00002C0880F991F0A94E2F7842B8C9353C0A6
:1021D000A5E3B0E0E5E3F0E08081482F8B81282F74
:1021E00030E081E090E0022E02C0880F991F0A942F
:1021F000E2F7809584238C933EC019823CC08C8189
:10220000282F30E03E832D838D819E810097C9F079
:102210002D813E812130310549F5A2E3B0E0E2E3B2
:10222000F0E08081482F8B81282F30E081E090E022
:10223000022E02C0880F991F0A94E2F7842B8C9318
:102240001AC0A2E3B0E0E2E3F0E08081482F8B8186
:10225000282F30E081E090E0022E02C0880F991F05
:102260000A94E2F7809584238C9305C0198203C0F9
:10227000198201C0198289812E960FB6F894DEBFAB
:102280000FBECDBFCF91DF910895DF93CF93CDB730
:10229000DEB728970FB6F894DEBF0FBECDBF8B8395
:1022A0006C835E834D8381E08A83CE010396009721
:1022B00009F47BC08B81282F30E038872F834F8132
:1022C00058854130510569F18F819885823091059B
:1022D00034F42F8138852115310569F064C04F81B0
:1022E00058854230510599F18F8198858330910549
:1022F00009F443C058C0E9E3F0E080818983898113
:10230000282F30E08C81882F90E0A90102C05595DC
:1023100047958A95E2F7CA018170ED81FE8180833D
:1023200045C0E6E3F0E0808189838981282F30E091
:102330008C81882F90E0A90102C0559547958A9518
:10234000E2F7CA018170ED81FE8180832FC0E3E353
:10235000F0E0808189838981282F30E08C81882F6B
:1023600090E0A90102C0559547958A95E2F7CA0108
:102370008170ED81FE81808319C0E0E3F0E080810F
:1023800089838981282F30E08C81882F90E0A901F2
:1023900002C0559547958A95E2F7CA018170ED8193
:1023A000FE81808303C01A8201C01A828A81289626
:1023B0000FB6F894DEBF0FBECDBFCF91DF91089569
:1023C000DF93CF93CDB7DEB72D970FB6F894DEBF6E
:1023D0000FBECDBF8A836B8381E089838B8181307F
:1023E00021F08B81882309F07FC08A81282F30E07B
:1023F0003D872C878C859D858130910571F12C85D9
:102400003D85223031052CF48C859D85009769F03F
:1024100069C02C853D8522303105B1F18C859D85C3
:102420008330910509F447C05DC08B81282F30E0CF
:102430003B872A878A859B85009759F02A853B85AB
:102440002130310509F051C0EAE3F0E08FEF8083DD
:102450004CC0EAE3F0E0108248C08B81282F30E0C6
:102460003987288788859985009751F0288539858F
:1024700021303105D1F5E7E3F0E08FEF808335C0FF
:10248000E7E3F0E0108231C08B81282F30E03F83FA
:102490002E838E819F81009751F02E813F812130C4
:1024A000310519F5E4E3F0E08FEF80831EC0E4E32B
:1024B000F0E010821AC08B81282F30E03D832C83FE
:1024C0008C819D81009751F02C813D812130310517
:1024D00061F4E1E3F0E08FEF808307C0E1E3F0E037
:1024E000108203C0198201C0198289812D960FB60E
:1024F000F894DEBF0FBECDBFCF91DF910895DF937B
:10250000CF9300D000D00F92CDB7DEB78A836B8314
:1025100081E089838A81282F30E03D832C838C8160
:102520009D8181309105D1F02C813D812230310592
:102530002CF48C819D81009761F01FC02C813D811E
:102540002230310581F08C819D818330910581F0AD
:1025500014C0EBE3F0E08B81808310C0E8E3F0E08F
:102560008B8180830BC0E5E3F0E08B81808306C024
:10257000E2E3F0E08B81808301C0198289810F90B2
:102580000F900F900F900F90CF91DF910895DF93F0
:10259000CF9300D000D000D0CDB7DEB78A837C8344
:1025A0006B8381E089838B819C810097E9F18A812B
:1025B000282F30E03E832D838D819E8181309105CF
:1025C000E1F02D813E81223031052CF48D819E81F8
:1025D000009761F027C02D813E8122303105A1F0A6
:1025E0008D819E8183309105B1F01CC0E9E3F0E05C
:1025F0008081EB81FC81808318C0E6E3F0E080817C
:10260000EB81FC81808311C0E3E3F0E08081EB810A
:10261000FC8180830AC0E0E3F0E08081EB81FC81F3
:10262000808303C0198201C01982898126960FB662
:10263000F894DEBF0FBECDBFCF91DF910895DF9339
:10264000CF93CDB7DEB7A6E2B0E0E6E2F0E080815E
:102650008E7F8C93A6E2B0E0E6E2F0E080818D7F91
:102660008C93A6E2B0E0E6E2F0E0808184608C9397
:10267000A7E2B0E0E7E2F0E080818F778C93A7E2F9
:10268000B0E0E7E2F0E0808180648C93A6E2B0E005
:10269000E6E2F0E0808180688C93CF91DF9108952D
:1026A000DF93CF9300D000D00F92CDB7DEB78D83EC
:1026B000A7E2B0E0E7E2F0E08081807E8C93A7E2C1
:1026C000B0E0E7E2F0E090818D81892B8C931C8251
:1026D0001B82A6E2B0E0E6E2F0E0808180648C93A9
:1026E000E6E2F0E080818295869586958370882F5A
:1026F00090E081709070882399F7E4E2F0E08081A7
:102700008A83E5E2F0E0808189838981882F90E0E7
:10271000382F22278A81882F90E0822B932B9C834D
:102720008B838B819C81CC01A0E0B0E0BC01CD010A
:102730000E94EF01DC01CB01BC01CD0120E030E0C3
:1027400040EA50E40E944900DC01CB01BC01CD010C
:1027500020E030E040E854E40E944301DC01CB017A
:10276000BC01CD010F900F900F900F900F90CF9163
:10277000DF910895DF93CF93CDB7DEB72C970FB6D7
:10278000F894DEBF0FBECDBF69877A878B879C87A1
:102790001D821E821F82188625C019821A821B8202
:1027A0001C820CC0000089819A81AB81BC8101969A
:1027B000A11DB11D89839A83AB83BC8389819A81D2
:1027C000AB81BC818C3D9105A105B10558F38D818C
:1027D0009E81AF81B8850196A11DB11D8D839E8319
:1027E000AF83B8872D813E814F81588589859A8531
:1027F000AB85BC85281739074A075B0770F22C9612
:102800000FB6F894DEBF0FBECDBFCF91DF91089514
:10281000DF93CF93CDB7DEB70E94CF0ECF91DF917C
:102820000895DF93CF93CDB7DEB72A970FB6F8940C
:10283000DEBF0FBECDBF6B837C838D839E834F83B2
:102840008F81282F30E03A87298789859A850097DC
:1028500009F45BC029853A852130310509F4C4C0EB
:10286000D1C01A8246C083E06A8141E00E941F10F5
:102870008A81882F90E0019624E030E0B9010E941F
:102880002018982F83E0692F40E00E941F108A8152
:10289000882F90E0029624E030E0B9010E942018D1
:1028A000982F83E0692F40E00E941F108A81882FB3
:1028B00090E0039624E030E0B9010E942018982FA0
:1028C00083E0692F40E00E941F1062E070E080E02A
:1028D00090E00E94BA138A818F5F8A838B819C81EA
:1028E000AD81BE810197A109B1098B839C83AD8322
:1028F000BE838A81843048F48B819C81AD81BE8106
:102900000097A105B10509F0AECF8B819C81AD8107
:10291000BE810097A105B10509F0A3CF0E940D1556
:1029200031E0388770C083E0898355C083E06981D6
:1029300041E00E941F108981882F90E0019624E0D9
:1029400030E0B9010E942018982F83E0692F40E001
:102950000E941F108981882F90E0029624E030E0C9
:10296000B9010E942018982F83E0692F40E00E944F
:102970001F108981882F90E0039624E030E0B90190
:102980000E942018982F83E0692F40E00E941F10BA
:1029900062E070E080E090E00E94BA1389818823B1
:1029A00061F48B819C81AD81BE810197A109B10940
:1029B0008B839C83AD83BE8317C0898181508983BB
:1029C0008B819C81AD81BE810197A109B1098B8367
:1029D0009C83AD83BE838B819C81AD81BE8100973A
:1029E000A105B10509F0A2CF8B819C81AD81BE818B
:1029F0000097A105B10509F096CF0E940D1581E061
:102A0000888701C0188688852A960FB6F894DEBF9D
:102A10000FBECDBFCF91DF910895DF93CF93CDB798
:102A2000DEB783E060E040E00E941F1083E061E0D9
:102A300040E00E941F1083E062E040E00E941F100F
:102A400083E063E040E00E941F10CF91DF91089582
:102A5000DF93CF93CDB7DEB70E94CF0E80E067E063
:102A600040E00E941F10CF91DF910895DF93CF9334
:102A700000D000D00F92CDB7DEB78C838C818A3026
:102A800088F51B821A8228C08C81282F30E08A8129
:102A9000482F50E0C901880F991F880F991F880F90
:102AA000991F821B930B840F951FFC01E859FE4F61
:102AB0008081813031F480E06B8140E00E941F1002
:102AC00005C080E06B8141E00E941F108B818F5F09
:102AD0008B838A818F5F8A838A818730A8F281E025
:102AE0008D8301C01D828D810F900F900F900F90EC
:102AF0000F90CF91DF910895DF93CF93CDB7DEB7DD
:102B000080E067E040E00E941F1081E0CF91DF91FC
:102B10000895DF93CF93CDB7DEB780E067E041E063
:102B20000E941F1081E0CF91DF910895DF93CF9332
:102B3000CDB7DEB768E270E080E090E00E94BA13A3
:102B40000E94CF0E8CE30E94B4158CE30E94B41552
:102B50008EE00E94B41581E00E94B41586E00E94C8
:102B6000B415CF91DF910895DF93CF930F92CDB736
:102B7000DEB7898380E060E040E00E941F1080E0C3
:102B800061E040E00E941F1080E062E041E00E94AE
:102B90001F1081E069810E947F1262E070E080E096
:102BA00090E00E94BA1380E062E040E00E941F10B3
:102BB00061E070E080E090E00E94BA1381E00F9045
:102BC000CF91DF910895DF93CF930F92CDB7DEB70A
:102BD00089838091E401803241F40E94871610922B
:102BE000E40180E060E00E942B168091E4018031D6
:102BF00021F480E061E00E942B1680E060E041E07B
:102C00000E941F1080E061E040E00E941F1080E001
:102C100062E041E00E941F1081E069810E947F1202
:102C200062E070E080E090E00E94BA1380E062E031
:102C300040E00E941F1061E070E080E090E00E94A0
:102C4000BA138091E4018F5F8093E40181E00F90DB
:102C5000CF91DF910895DF93CF9300D00F92CDB73E
:102C6000DEB789836A8389818031C0F48A818230AA
:102C7000A8F48A81882F90E0002496958795079480
:102C8000969587950794982F802D982F8981890F85
:102C900080580E94B41581E08B8301C01B828B8118
:102CA0000F900F900F90CF91DF910895DF93CF9306
:102CB00000D0CDB7DEB79A8389830AC0E981FA8153
:102CC00080810E94E31589819A8101969A83898384
:102CD000E981FA818081882389F781E00F900F9044
:102CE000CF91DF910895DF93CF93CDB7DEB78BE01F
:102CF0000E94B415CF91DF910895DF93CF93CDB7A4
:102D0000DEB78CE00E94B415CF91DF910895DF9378
:102D1000CF93CDB7DEB71092E40181E00E94B415E5
:102D2000CF91DF910895DF93CF93CDB7DEB70E94A7
:102D3000CF0ECF91DF910895DF93CF93CDB7DEB75C
:102D400027970FB6F894DEBF0FBECDBF8FEF8E83EF
:102D50001D821C821B828EC082E06D8140E00E9439
:102D60001F1084E08A83198273C09E01295F3F4F40
:102D700082E06A81A9010E9445118F81882309F0B0
:102D800061C06AE070E080E090E00E94BA139E01AA
:102D9000295F3F4F82E06A81A9010E94451108C066
:102DA0009E01295F3F4F82E06A81A9010E9445117F
:102DB0008F818823A9F38091AE01813099F48981B4
:102DC000282F30E08B81482F50E0C901880F991FD0
:102DD000820F931F840F951FFC01E155FE4F8081E8
:102DE0008E832DC08091AE01823099F48981282F85
:102DF00030E08B81482F50E0C901880F991F820F66
:102E0000931F840F951FFC01E554FE4F80818E8334
:102E100016C08091AE01833091F48981482F50E033
:102E20008B81282F30E0CA01880F991F880F991FC6
:102E3000820F931FFC01E953FE4F80818E8381E056
:102E40008C830AC089818F5F89838A818F5F8A839F
:102E50008981843008F489CF82E06D8141E00E944D
:102E60001F108C81813051F08B818F5F8B838D811E
:102E70008F5F8D838B81843008F46ECF8E8127968F
:102E80000FB6F894DEBF0FBECDBFCF91DF9108958E
:102E9000DF93CF930F92CDB7DEB789838981882FD7
:102EA00090E001978330910518F489818093AE01F9
:102EB0000F90CF91DF910895DF93CF9300D000D092
:102EC000CDB7DEB79B838A836C838A819B81892FF0
:102ED0009927806589830E94470589810E9494050E
:102EE0008A810E9407068C810E9407060E949C0628
:102EF00064E170E080E090E00E94BA130F900F90C0
:102F00000F900F90CF91DF910895DF93CF9300D072
:102F100000D00F92CDB7DEB79D838C838C819D81CD
:102F2000892F9927806589830E94470589810E949E
:102F300094058C810E9407060E94710589810E9478
:102F4000CF05CE0102960E943006CE0103960E9464
:102F50005F060E949C068A810F900F900F900F9041
:102F60000F90CF91DF910895DF93CF93CDB7DEB768
:102F70000E94CF0ECF91DF910895DF93CF9300D0C1
:102F8000CDB7DEB789838981882F90E000968230A3
:102F9000910540F483E064E049810E941F1081E0C4
:102FA0008A8301C01A828A810F900F90CF91DF919E
:102FB0000895DF93CF9300D000D00F92CDB7DEB746
:102FC0000E94CF0E0E944B0480E00E94F80464E649
:102FD00070E080E090E00E94BA1381E48D8382E388
:102FE0000E94790419821A821B821C8217C089816F
:102FF0009A810E9485170E94790464E170E080E064
:1030000090E00E94BA1389819A81AB81BC810196BC
:10301000A11DB11D89839A83AB83BC8389819A8169
:10302000AB81BC8182339105A105B10500F368EE47
:1030300073E080E090E00E94BA130E94DE04CFCFDC
:1030400097FB092E07260AD077FD04D00CD006D0B6
:1030500000201AF4709561957F4F0895F6F79095CA
:1030600081959F4F0895AA1BBB1B51E107C0AA1F62
:10307000BB1FA617B70710F0A61BB70B881F991F19
:103080005A95A9F780959095BC01CD0108952F928E
:103090003F924F925F926F927F928F929F92AF92E8
:1030A000BF92CF92DF92EF92FF920F931F93CF9335
:1030B000DF93CDB7DEB7CA1BDB0B0FB6F894DEBFCC
:1030C0000FBECDBF09942A88398848885F846E84F2
:1030D0007D848C849B84AA84B984C884DF80EE803C
:1030E000FD800C811B81AA81B981CE0FD11D0FB645
:1030F000F894DEBF0FBECDBFED010895F894FFCF69
:1031000000000000000000000001020203030303AE
:103110000404040404040404050505050505050567
:103120000505050505050505060606060606060647
:10313000060606060606060606060606060606062F
:103140000606060606060606070707070707070717
:1031500007070707070707070707070707070707FF
:1031600007070707070707070707070707070707EF
:1031700007070707070707070707070707070707DF
:1031800007070707070707070808080808080808C7
:1031900008080808080808080808080808080808AF
:1031A000080808080808080808080808080808089F
:1031B000080808080808080808080808080808088F
:1031C000080808080808080808080808080808087F
:1031D000080808080808080808080808080808086F
:1031E000080808080808080808080808080808085F
:1031F000080808080808080808080808080808084F
:103200000808080808080808010101010101000078
:1032100001010000000001010001010001010101A4
:103220000100000100010100000101010001010095
:103230000101010001010101010101010000010082
:10324000010101010101010101010100010101313F
:1032500032333435363738392A30234142434445F6
:10326000464748494A4B4C3738392F3435362A318E
:0832700032332D4F303D2B00DD
:00000001FF
