:100000000C942A000C9447000C9447000C94470071
:100010000C9447000C9447000C9447000C94470044
:100020000C9447000C9447000C9447000C94470034
:100030000C9447000C9447000C9447000C94470024
:100040000C9447000C9447000C9447000C94470014
:100050000C94470011241FBECFE5D8E0DEBFCDBF12
:1000600010E0A0E6B0E0EAE1F1E002C005900D92F8
:10007000AC36B107D9F710E0ACE6B0E001C01D9294
:10008000A237B107E1F70E9449000C948B000C9451
:100090000000DF93CF93CDB7DEB780E690E00E94FB
:1000A000560080E090E0CF91DF9108950F931F9369
:1000B000CF93DF938C01E0916E00F0916F0083810C
:1000C00081FF21C0C0E0D0E00DC0E0916E00F09152
:1000D0006F0020853185BF01F9010995892B11F049
:1000E000CFEFDFEFF80181918F01882371F7E09165
:1000F0006E00F0916F00208531858AE0BF01F90123
:100100000995892B11F0CFEFDFEFCE01DF91CF9171
:0A0110001F910F910895F894FFCF9E
:0C011A0048656C6C6F2041686D656400E6
:00000001FF
